{
	"BankingSystem/BankingSystem.sol": {
		"BankingSystem": {
			"abi": [
				{
					"inputs": [],
					"stateMutability": "nonpayable",
					"type": "constructor"
				},
				{
					"anonymous": false,
					"inputs": [
						{
							"indexed": true,
							"internalType": "address",
							"name": "account",
							"type": "address"
						},
						{
							"indexed": false,
							"internalType": "uint256",
							"name": "amount",
							"type": "uint256"
						}
					],
					"name": "Deposit",
					"type": "event"
				},
				{
					"anonymous": false,
					"inputs": [
						{
							"indexed": true,
							"internalType": "address",
							"name": "account",
							"type": "address"
						},
						{
							"indexed": false,
							"internalType": "uint256",
							"name": "amount",
							"type": "uint256"
						}
					],
					"name": "LoanPenalty",
					"type": "event"
				},
				{
					"anonymous": false,
					"inputs": [
						{
							"indexed": true,
							"internalType": "address",
							"name": "account",
							"type": "address"
						},
						{
							"indexed": false,
							"internalType": "uint256",
							"name": "amount",
							"type": "uint256"
						}
					],
					"name": "LoanRepayment",
					"type": "event"
				},
				{
					"anonymous": false,
					"inputs": [
						{
							"indexed": true,
							"internalType": "address",
							"name": "account",
							"type": "address"
						},
						{
							"indexed": false,
							"internalType": "uint256",
							"name": "amount",
							"type": "uint256"
						}
					],
					"name": "LoanRequested",
					"type": "event"
				},
				{
					"anonymous": false,
					"inputs": [
						{
							"indexed": false,
							"internalType": "address",
							"name": "customer",
							"type": "address"
						}
					],
					"name": "NewCustomerRegistered",
					"type": "event"
				},
				{
					"anonymous": false,
					"inputs": [
						{
							"indexed": true,
							"internalType": "address",
							"name": "account",
							"type": "address"
						},
						{
							"indexed": false,
							"internalType": "uint256",
							"name": "amount",
							"type": "uint256"
						}
					],
					"name": "Withdrawal",
					"type": "event"
				},
				{
					"inputs": [],
					"name": "admin",
					"outputs": [
						{
							"internalType": "address",
							"name": "",
							"type": "address"
						}
					],
					"stateMutability": "view",
					"type": "function"
				},
				{
					"inputs": [
						{
							"internalType": "address",
							"name": "",
							"type": "address"
						}
					],
					"name": "balances",
					"outputs": [
						{
							"internalType": "uint256",
							"name": "",
							"type": "uint256"
						}
					],
					"stateMutability": "view",
					"type": "function"
				},
				{
					"inputs": [
						{
							"internalType": "address",
							"name": "_newAdmin",
							"type": "address"
						}
					],
					"name": "changeAdmin",
					"outputs": [],
					"stateMutability": "nonpayable",
					"type": "function"
				},
				{
					"inputs": [],
					"name": "deposit",
					"outputs": [],
					"stateMutability": "payable",
					"type": "function"
				},
				{
					"inputs": [
						{
							"internalType": "address",
							"name": "",
							"type": "address"
						}
					],
					"name": "hasLoan",
					"outputs": [
						{
							"internalType": "bool",
							"name": "",
							"type": "bool"
						}
					],
					"stateMutability": "view",
					"type": "function"
				},
				{
					"inputs": [
						{
							"internalType": "address",
							"name": "",
							"type": "address"
						}
					],
					"name": "isCustomer",
					"outputs": [
						{
							"internalType": "bool",
							"name": "",
							"type": "bool"
						}
					],
					"stateMutability": "view",
					"type": "function"
				},
				{
					"inputs": [],
					"name": "loanInterestRate",
					"outputs": [
						{
							"internalType": "uint256",
							"name": "",
							"type": "uint256"
						}
					],
					"stateMutability": "view",
					"type": "function"
				},
				{
					"inputs": [],
					"name": "loanPenaltyRate",
					"outputs": [
						{
							"internalType": "uint256",
							"name": "",
							"type": "uint256"
						}
					],
					"stateMutability": "view",
					"type": "function"
				},
				{
					"inputs": [
						{
							"internalType": "address",
							"name": "_customer",
							"type": "address"
						}
					],
					"name": "registerCustomer",
					"outputs": [],
					"stateMutability": "nonpayable",
					"type": "function"
				},
				{
					"inputs": [
						{
							"internalType": "uint256",
							"name": "_amount",
							"type": "uint256"
						}
					],
					"name": "repayLoan",
					"outputs": [],
					"stateMutability": "nonpayable",
					"type": "function"
				},
				{
					"inputs": [
						{
							"internalType": "uint256",
							"name": "_amount",
							"type": "uint256"
						}
					],
					"name": "requestLoan",
					"outputs": [],
					"stateMutability": "nonpayable",
					"type": "function"
				},
				{
					"inputs": [
						{
							"internalType": "uint256",
							"name": "_amount",
							"type": "uint256"
						}
					],
					"name": "withdraw",
					"outputs": [],
					"stateMutability": "nonpayable",
					"type": "function"
				}
			],
			"devdoc": {
				"kind": "dev",
				"methods": {},
				"version": 1
			},
			"evm": {
				"assembly": "    /* \"BankingSystem/BankingSystem.sol\":60:3038  contract BankingSystem {... */\n  mstore(0x40, 0x80)\n    /* \"BankingSystem/BankingSystem.sol\":296:297  5 */\n  0x05\n    /* \"BankingSystem/BankingSystem.sol\":262:297  uint256 public loanInterestRate = 5 */\n  0x04\n  sstore\n    /* \"BankingSystem/BankingSystem.sol\":338:340  10 */\n  0x0a\n    /* \"BankingSystem/BankingSystem.sol\":305:340  uint256 public loanPenaltyRate = 10 */\n  0x05\n  sstore\n    /* \"BankingSystem/BankingSystem.sol\":987:1038  constructor() {... */\n  callvalue\n  dup1\n  iszero\n  tag_1\n  jumpi\n  0x00\n  dup1\n  revert\ntag_1:\n  pop\n    /* \"BankingSystem/BankingSystem.sol\":1020:1030  msg.sender */\n  caller\n    /* \"BankingSystem/BankingSystem.sol\":1012:1017  admin */\n  0x00\n  dup1\n    /* \"BankingSystem/BankingSystem.sol\":1012:1030  admin = msg.sender */\n  0x0100\n  exp\n  dup2\n  sload\n  dup2\n  0xffffffffffffffffffffffffffffffffffffffff\n  mul\n  not\n  and\n  swap1\n  dup4\n  0xffffffffffffffffffffffffffffffffffffffff\n  and\n  mul\n  or\n  swap1\n  sstore\n  pop\n    /* \"BankingSystem/BankingSystem.sol\":60:3038  contract BankingSystem {... */\n  dataSize(sub_0)\n  dup1\n  dataOffset(sub_0)\n  0x00\n  codecopy\n  0x00\n  return\nstop\n\nsub_0: assembly {\n        /* \"BankingSystem/BankingSystem.sol\":60:3038  contract BankingSystem {... */\n      mstore(0x40, 0x80)\n      jumpi(tag_1, lt(calldatasize, 0x04))\n      shr(0xe0, calldataload(0x00))\n      dup1\n      0x8f283970\n      gt\n      tag_14\n      jumpi\n      dup1\n      0x8f283970\n      eq\n      tag_8\n      jumpi\n      dup1\n      0x9da8c580\n      eq\n      tag_9\n      jumpi\n      dup1\n      0xab7b1c89\n      eq\n      tag_10\n      jumpi\n      dup1\n      0xc222bcea\n      eq\n      tag_11\n      jumpi\n      dup1\n      0xd0e30db0\n      eq\n      tag_12\n      jumpi\n      dup1\n      0xf851a440\n      eq\n      tag_13\n      jumpi\n      jump(tag_1)\n    tag_14:\n      dup1\n      0x11d20d20\n      eq\n      tag_2\n      jumpi\n      dup1\n      0x27e235e3\n      eq\n      tag_3\n      jumpi\n      dup1\n      0x28fd5e83\n      eq\n      tag_4\n      jumpi\n      dup1\n      0x2e1a7d4d\n      eq\n      tag_5\n      jumpi\n      dup1\n      0x7520320f\n      eq\n      tag_6\n      jumpi\n      dup1\n      0x8d5d3429\n      eq\n      tag_7\n      jumpi\n    tag_1:\n      0x00\n      dup1\n      revert\n        /* \"BankingSystem/BankingSystem.sol\":305:340  uint256 public loanPenaltyRate = 10 */\n    tag_2:\n      callvalue\n      dup1\n      iszero\n      tag_15\n      jumpi\n      0x00\n      dup1\n      revert\n    tag_15:\n      pop\n      tag_16\n      tag_17\n      jump\t// in\n    tag_16:\n      mload(0x40)\n      tag_18\n      swap2\n      swap1\n      tag_19\n      jump\t// in\n    tag_18:\n      mload(0x40)\n      dup1\n      swap2\n      sub\n      swap1\n      return\n        /* \"BankingSystem/BankingSystem.sol\":117:160  mapping(address => uint256) public balances */\n    tag_3:\n      callvalue\n      dup1\n      iszero\n      tag_20\n      jumpi\n      0x00\n      dup1\n      revert\n    tag_20:\n      pop\n      tag_21\n      0x04\n      dup1\n      calldatasize\n      sub\n      dup2\n      add\n      swap1\n      tag_22\n      swap2\n      swap1\n      tag_23\n      jump\t// in\n    tag_22:\n      tag_24\n      jump\t// in\n    tag_21:\n      mload(0x40)\n      tag_25\n      swap2\n      swap1\n      tag_19\n      jump\t// in\n    tag_25:\n      mload(0x40)\n      dup1\n      swap2\n      sub\n      swap1\n      return\n        /* \"BankingSystem/BankingSystem.sol\":167:209  mapping(address => bool) public isCustomer */\n    tag_4:\n      callvalue\n      dup1\n      iszero\n      tag_26\n      jumpi\n      0x00\n      dup1\n      revert\n    tag_26:\n      pop\n      tag_27\n      0x04\n      dup1\n      calldatasize\n      sub\n      dup2\n      add\n      swap1\n      tag_28\n      swap2\n      swap1\n      tag_23\n      jump\t// in\n    tag_28:\n      tag_29\n      jump\t// in\n    tag_27:\n      mload(0x40)\n      tag_30\n      swap2\n      swap1\n      tag_31\n      jump\t// in\n    tag_30:\n      mload(0x40)\n      dup1\n      swap2\n      sub\n      swap1\n      return\n        /* \"BankingSystem/BankingSystem.sol\":1519:1804  function withdraw(uint256 _amount) external onlyExistingCustomer {... */\n    tag_5:\n      callvalue\n      dup1\n      iszero\n      tag_32\n      jumpi\n      0x00\n      dup1\n      revert\n    tag_32:\n      pop\n      tag_33\n      0x04\n      dup1\n      calldatasize\n      sub\n      dup2\n      add\n      swap1\n      tag_34\n      swap2\n      swap1\n      tag_35\n      jump\t// in\n    tag_34:\n      tag_36\n      jump\t// in\n    tag_33:\n      stop\n        /* \"BankingSystem/BankingSystem.sol\":1046:1274  function registerCustomer(address _customer) external onlyAdmin {... */\n    tag_6:\n      callvalue\n      dup1\n      iszero\n      tag_37\n      jumpi\n      0x00\n      dup1\n      revert\n    tag_37:\n      pop\n      tag_38\n      0x04\n      dup1\n      calldatasize\n      sub\n      dup2\n      add\n      swap1\n      tag_39\n      swap2\n      swap1\n      tag_23\n      jump\t// in\n    tag_39:\n      tag_40\n      jump\t// in\n    tag_38:\n      stop\n        /* \"BankingSystem/BankingSystem.sol\":1812:2255  function requestLoan(uint256 _amount) external onlyExistingCustomer {... */\n    tag_7:\n      callvalue\n      dup1\n      iszero\n      tag_41\n      jumpi\n      0x00\n      dup1\n      revert\n    tag_41:\n      pop\n      tag_42\n      0x04\n      dup1\n      calldatasize\n      sub\n      dup2\n      add\n      swap1\n      tag_43\n      swap2\n      swap1\n      tag_35\n      jump\t// in\n    tag_43:\n      tag_44\n      jump\t// in\n    tag_42:\n      stop\n        /* \"BankingSystem/BankingSystem.sol\":2940:3035  function changeAdmin(address _newAdmin) external onlyAdmin {... */\n    tag_8:\n      callvalue\n      dup1\n      iszero\n      tag_45\n      jumpi\n      0x00\n      dup1\n      revert\n    tag_45:\n      pop\n      tag_46\n      0x04\n      dup1\n      calldatasize\n      sub\n      dup2\n      add\n      swap1\n      tag_47\n      swap2\n      swap1\n      tag_23\n      jump\t// in\n    tag_47:\n      tag_48\n      jump\t// in\n    tag_46:\n      stop\n        /* \"BankingSystem/BankingSystem.sol\":216:255  mapping(address => bool) public hasLoan */\n    tag_9:\n      callvalue\n      dup1\n      iszero\n      tag_49\n      jumpi\n      0x00\n      dup1\n      revert\n    tag_49:\n      pop\n      tag_50\n      0x04\n      dup1\n      calldatasize\n      sub\n      dup2\n      add\n      swap1\n      tag_51\n      swap2\n      swap1\n      tag_23\n      jump\t// in\n    tag_51:\n      tag_52\n      jump\t// in\n    tag_50:\n      mload(0x40)\n      tag_53\n      swap2\n      swap1\n      tag_31\n      jump\t// in\n    tag_53:\n      mload(0x40)\n      dup1\n      swap2\n      sub\n      swap1\n      return\n        /* \"BankingSystem/BankingSystem.sol\":2263:2932  function repayLoan(uint256 _amount) external onlyExistingCustomer {... */\n    tag_10:\n      callvalue\n      dup1\n      iszero\n      tag_54\n      jumpi\n      0x00\n      dup1\n      revert\n    tag_54:\n      pop\n      tag_55\n      0x04\n      dup1\n      calldatasize\n      sub\n      dup2\n      add\n      swap1\n      tag_56\n      swap2\n      swap1\n      tag_35\n      jump\t// in\n    tag_56:\n      tag_57\n      jump\t// in\n    tag_55:\n      stop\n        /* \"BankingSystem/BankingSystem.sol\":262:297  uint256 public loanInterestRate = 5 */\n    tag_11:\n      callvalue\n      dup1\n      iszero\n      tag_58\n      jumpi\n      0x00\n      dup1\n      revert\n    tag_58:\n      pop\n      tag_59\n      tag_60\n      jump\t// in\n    tag_59:\n      mload(0x40)\n      tag_61\n      swap2\n      swap1\n      tag_19\n      jump\t// in\n    tag_61:\n      mload(0x40)\n      dup1\n      swap2\n      sub\n      swap1\n      return\n        /* \"BankingSystem/BankingSystem.sol\":1282:1511  function deposit() external payable onlyExistingCustomer {... */\n    tag_12:\n      tag_62\n      tag_63\n      jump\t// in\n    tag_62:\n      stop\n        /* \"BankingSystem/BankingSystem.sol\":90:110  address public admin */\n    tag_13:\n      callvalue\n      dup1\n      iszero\n      tag_64\n      jumpi\n      0x00\n      dup1\n      revert\n    tag_64:\n      pop\n      tag_65\n      tag_66\n      jump\t// in\n    tag_65:\n      mload(0x40)\n      tag_67\n      swap2\n      swap1\n      tag_68\n      jump\t// in\n    tag_67:\n      mload(0x40)\n      dup1\n      swap2\n      sub\n      swap1\n      return\n        /* \"BankingSystem/BankingSystem.sol\":305:340  uint256 public loanPenaltyRate = 10 */\n    tag_17:\n      sload(0x05)\n      dup2\n      jump\t// out\n        /* \"BankingSystem/BankingSystem.sol\":117:160  mapping(address => uint256) public balances */\n    tag_24:\n      mstore(0x20, 0x01)\n      dup1\n      0x00\n      mstore\n      keccak256(0x00, 0x40)\n      0x00\n      swap2\n      pop\n      swap1\n      pop\n      sload\n      dup2\n      jump\t// out\n        /* \"BankingSystem/BankingSystem.sol\":167:209  mapping(address => bool) public isCustomer */\n    tag_29:\n      mstore(0x20, 0x02)\n      dup1\n      0x00\n      mstore\n      keccak256(0x00, 0x40)\n      0x00\n      swap2\n      pop\n      sload\n      swap1\n      0x0100\n      exp\n      swap1\n      div\n      0xff\n      and\n      dup2\n      jump\t// out\n        /* \"BankingSystem/BankingSystem.sol\":1519:1804  function withdraw(uint256 _amount) external onlyExistingCustomer {... */\n    tag_36:\n        /* \"BankingSystem/BankingSystem.sol\":909:919  isCustomer */\n      0x02\n        /* \"BankingSystem/BankingSystem.sol\":909:931  isCustomer[msg.sender] */\n      0x00\n        /* \"BankingSystem/BankingSystem.sol\":920:930  msg.sender */\n      caller\n        /* \"BankingSystem/BankingSystem.sol\":909:931  isCustomer[msg.sender] */\n      0xffffffffffffffffffffffffffffffffffffffff\n      and\n      0xffffffffffffffffffffffffffffffffffffffff\n      and\n      dup2\n      mstore\n      0x20\n      add\n      swap1\n      dup2\n      mstore\n      0x20\n      add\n      0x00\n      keccak256\n      0x00\n      swap1\n      sload\n      swap1\n      0x0100\n      exp\n      swap1\n      div\n      0xff\n      and\n        /* \"BankingSystem/BankingSystem.sol\":901:959  require(isCustomer[msg.sender], \"Customer does not exist\") */\n      tag_70\n      jumpi\n      mload(0x40)\n      0x08c379a000000000000000000000000000000000000000000000000000000000\n      dup2\n      mstore\n      0x04\n      add\n      tag_71\n      swap1\n      tag_72\n      jump\t// in\n    tag_71:\n      mload(0x40)\n      dup1\n      swap2\n      sub\n      swap1\n      revert\n    tag_70:\n        /* \"BankingSystem/BankingSystem.sol\":1627:1634  _amount */\n      dup1\n        /* \"BankingSystem/BankingSystem.sol\":1603:1611  balances */\n      0x01\n        /* \"BankingSystem/BankingSystem.sol\":1603:1623  balances[msg.sender] */\n      0x00\n        /* \"BankingSystem/BankingSystem.sol\":1612:1622  msg.sender */\n      caller\n        /* \"BankingSystem/BankingSystem.sol\":1603:1623  balances[msg.sender] */\n      0xffffffffffffffffffffffffffffffffffffffff\n      and\n      0xffffffffffffffffffffffffffffffffffffffff\n      and\n      dup2\n      mstore\n      0x20\n      add\n      swap1\n      dup2\n      mstore\n      0x20\n      add\n      0x00\n      keccak256\n      sload\n        /* \"BankingSystem/BankingSystem.sol\":1603:1634  balances[msg.sender] >= _amount */\n      lt\n      iszero\n        /* \"BankingSystem/BankingSystem.sol\":1595:1659  require(balances[msg.sender] >= _amount, \"Insufficient balance\") */\n      tag_74\n      jumpi\n      mload(0x40)\n      0x08c379a000000000000000000000000000000000000000000000000000000000\n      dup2\n      mstore\n      0x04\n      add\n      tag_75\n      swap1\n      tag_76\n      jump\t// in\n    tag_75:\n      mload(0x40)\n      dup1\n      swap2\n      sub\n      swap1\n      revert\n    tag_74:\n        /* \"BankingSystem/BankingSystem.sol\":1694:1701  _amount */\n      dup1\n        /* \"BankingSystem/BankingSystem.sol\":1670:1678  balances */\n      0x01\n        /* \"BankingSystem/BankingSystem.sol\":1670:1690  balances[msg.sender] */\n      0x00\n        /* \"BankingSystem/BankingSystem.sol\":1679:1689  msg.sender */\n      caller\n        /* \"BankingSystem/BankingSystem.sol\":1670:1690  balances[msg.sender] */\n      0xffffffffffffffffffffffffffffffffffffffff\n      and\n      0xffffffffffffffffffffffffffffffffffffffff\n      and\n      dup2\n      mstore\n      0x20\n      add\n      swap1\n      dup2\n      mstore\n      0x20\n      add\n      0x00\n      keccak256\n      0x00\n        /* \"BankingSystem/BankingSystem.sol\":1670:1701  balances[msg.sender] -= _amount */\n      dup3\n      dup3\n      sload\n      tag_77\n      swap2\n      swap1\n      tag_78\n      jump\t// in\n    tag_77:\n      swap3\n      pop\n      pop\n      dup2\n      swap1\n      sstore\n      pop\n        /* \"BankingSystem/BankingSystem.sol\":1720:1730  msg.sender */\n      caller\n        /* \"BankingSystem/BankingSystem.sol\":1712:1740  payable(msg.sender).transfer */\n      0xffffffffffffffffffffffffffffffffffffffff\n      and\n        /* \"BankingSystem/BankingSystem.sol\":1712:1749  payable(msg.sender).transfer(_amount) */\n      0x08fc\n        /* \"BankingSystem/BankingSystem.sol\":1741:1748  _amount */\n      dup3\n        /* \"BankingSystem/BankingSystem.sol\":1712:1749  payable(msg.sender).transfer(_amount) */\n      swap1\n      dup2\n      iszero\n      mul\n      swap1\n      mload(0x40)\n      0x00\n      mload(0x40)\n      dup1\n      dup4\n      sub\n      dup2\n      dup6\n      dup9\n      dup9\n      call\n      swap4\n      pop\n      pop\n      pop\n      pop\n      iszero\n      dup1\n      iszero\n      tag_80\n      jumpi\n      returndatasize\n      0x00\n      dup1\n      returndatacopy\n      revert(0x00, returndatasize)\n    tag_80:\n      pop\n        /* \"BankingSystem/BankingSystem.sol\":1776:1786  msg.sender */\n      caller\n        /* \"BankingSystem/BankingSystem.sol\":1765:1796  Withdrawal(msg.sender, _amount) */\n      0xffffffffffffffffffffffffffffffffffffffff\n      and\n      0x7fcf532c15f0a6db0bd6d0e038bea71d30d808c7d98cb3bf7268a95bf5081b65\n        /* \"BankingSystem/BankingSystem.sol\":1788:1795  _amount */\n      dup3\n        /* \"BankingSystem/BankingSystem.sol\":1765:1796  Withdrawal(msg.sender, _amount) */\n      mload(0x40)\n      tag_81\n      swap2\n      swap1\n      tag_19\n      jump\t// in\n    tag_81:\n      mload(0x40)\n      dup1\n      swap2\n      sub\n      swap1\n      log2\n        /* \"BankingSystem/BankingSystem.sol\":1519:1804  function withdraw(uint256 _amount) external onlyExistingCustomer {... */\n      pop\n      jump\t// out\n        /* \"BankingSystem/BankingSystem.sol\":1046:1274  function registerCustomer(address _customer) external onlyAdmin {... */\n    tag_40:\n        /* \"BankingSystem/BankingSystem.sol\":786:791  admin */\n      0x00\n      dup1\n      sload\n      swap1\n      0x0100\n      exp\n      swap1\n      div\n      0xffffffffffffffffffffffffffffffffffffffff\n      and\n        /* \"BankingSystem/BankingSystem.sol\":772:791  msg.sender == admin */\n      0xffffffffffffffffffffffffffffffffffffffff\n      and\n        /* \"BankingSystem/BankingSystem.sol\":772:782  msg.sender */\n      caller\n        /* \"BankingSystem/BankingSystem.sol\":772:791  msg.sender == admin */\n      0xffffffffffffffffffffffffffffffffffffffff\n      and\n      eq\n        /* \"BankingSystem/BankingSystem.sol\":764:830  require(msg.sender == admin, \"Only admin can perform this action\") */\n      tag_83\n      jumpi\n      mload(0x40)\n      0x08c379a000000000000000000000000000000000000000000000000000000000\n      dup2\n      mstore\n      0x04\n      add\n      tag_84\n      swap1\n      tag_85\n      jump\t// in\n    tag_84:\n      mload(0x40)\n      dup1\n      swap2\n      sub\n      swap1\n      revert\n    tag_83:\n        /* \"BankingSystem/BankingSystem.sol\":1130:1140  isCustomer */\n      0x02\n        /* \"BankingSystem/BankingSystem.sol\":1130:1151  isCustomer[_customer] */\n      0x00\n        /* \"BankingSystem/BankingSystem.sol\":1141:1150  _customer */\n      dup3\n        /* \"BankingSystem/BankingSystem.sol\":1130:1151  isCustomer[_customer] */\n      0xffffffffffffffffffffffffffffffffffffffff\n      and\n      0xffffffffffffffffffffffffffffffffffffffff\n      and\n      dup2\n      mstore\n      0x20\n      add\n      swap1\n      dup2\n      mstore\n      0x20\n      add\n      0x00\n      keccak256\n      0x00\n      swap1\n      sload\n      swap1\n      0x0100\n      exp\n      swap1\n      div\n      0xff\n      and\n        /* \"BankingSystem/BankingSystem.sol\":1129:1151  !isCustomer[_customer] */\n      iszero\n        /* \"BankingSystem/BankingSystem.sol\":1121:1179  require(!isCustomer[_customer], \"Customer already exists\") */\n      tag_87\n      jumpi\n      mload(0x40)\n      0x08c379a000000000000000000000000000000000000000000000000000000000\n      dup2\n      mstore\n      0x04\n      add\n      tag_88\n      swap1\n      tag_89\n      jump\t// in\n    tag_88:\n      mload(0x40)\n      dup1\n      swap2\n      sub\n      swap1\n      revert\n    tag_87:\n        /* \"BankingSystem/BankingSystem.sol\":1214:1218  true */\n      0x01\n        /* \"BankingSystem/BankingSystem.sol\":1190:1200  isCustomer */\n      0x02\n        /* \"BankingSystem/BankingSystem.sol\":1190:1211  isCustomer[_customer] */\n      0x00\n        /* \"BankingSystem/BankingSystem.sol\":1201:1210  _customer */\n      dup4\n        /* \"BankingSystem/BankingSystem.sol\":1190:1211  isCustomer[_customer] */\n      0xffffffffffffffffffffffffffffffffffffffff\n      and\n      0xffffffffffffffffffffffffffffffffffffffff\n      and\n      dup2\n      mstore\n      0x20\n      add\n      swap1\n      dup2\n      mstore\n      0x20\n      add\n      0x00\n      keccak256\n      0x00\n        /* \"BankingSystem/BankingSystem.sol\":1190:1218  isCustomer[_customer] = true */\n      0x0100\n      exp\n      dup2\n      sload\n      dup2\n      0xff\n      mul\n      not\n      and\n      swap1\n      dup4\n      iszero\n      iszero\n      mul\n      or\n      swap1\n      sstore\n      pop\n        /* \"BankingSystem/BankingSystem.sol\":1234:1266  NewCustomerRegistered(_customer) */\n      0x38e4f67e693b50563b5b4ff6b4f367f4ccd75b23d50bd74de4db712c22e33899\n        /* \"BankingSystem/BankingSystem.sol\":1256:1265  _customer */\n      dup2\n        /* \"BankingSystem/BankingSystem.sol\":1234:1266  NewCustomerRegistered(_customer) */\n      mload(0x40)\n      tag_90\n      swap2\n      swap1\n      tag_68\n      jump\t// in\n    tag_90:\n      mload(0x40)\n      dup1\n      swap2\n      sub\n      swap1\n      log1\n        /* \"BankingSystem/BankingSystem.sol\":1046:1274  function registerCustomer(address _customer) external onlyAdmin {... */\n      pop\n      jump\t// out\n        /* \"BankingSystem/BankingSystem.sol\":1812:2255  function requestLoan(uint256 _amount) external onlyExistingCustomer {... */\n    tag_44:\n        /* \"BankingSystem/BankingSystem.sol\":909:919  isCustomer */\n      0x02\n        /* \"BankingSystem/BankingSystem.sol\":909:931  isCustomer[msg.sender] */\n      0x00\n        /* \"BankingSystem/BankingSystem.sol\":920:930  msg.sender */\n      caller\n        /* \"BankingSystem/BankingSystem.sol\":909:931  isCustomer[msg.sender] */\n      0xffffffffffffffffffffffffffffffffffffffff\n      and\n      0xffffffffffffffffffffffffffffffffffffffff\n      and\n      dup2\n      mstore\n      0x20\n      add\n      swap1\n      dup2\n      mstore\n      0x20\n      add\n      0x00\n      keccak256\n      0x00\n      swap1\n      sload\n      swap1\n      0x0100\n      exp\n      swap1\n      div\n      0xff\n      and\n        /* \"BankingSystem/BankingSystem.sol\":901:959  require(isCustomer[msg.sender], \"Customer does not exist\") */\n      tag_92\n      jumpi\n      mload(0x40)\n      0x08c379a000000000000000000000000000000000000000000000000000000000\n      dup2\n      mstore\n      0x04\n      add\n      tag_93\n      swap1\n      tag_72\n      jump\t// in\n    tag_93:\n      mload(0x40)\n      dup1\n      swap2\n      sub\n      swap1\n      revert\n    tag_92:\n        /* \"BankingSystem/BankingSystem.sol\":1900:1907  hasLoan */\n      0x03\n        /* \"BankingSystem/BankingSystem.sol\":1900:1919  hasLoan[msg.sender] */\n      0x00\n        /* \"BankingSystem/BankingSystem.sol\":1908:1918  msg.sender */\n      caller\n        /* \"BankingSystem/BankingSystem.sol\":1900:1919  hasLoan[msg.sender] */\n      0xffffffffffffffffffffffffffffffffffffffff\n      and\n      0xffffffffffffffffffffffffffffffffffffffff\n      and\n      dup2\n      mstore\n      0x20\n      add\n      swap1\n      dup2\n      mstore\n      0x20\n      add\n      0x00\n      keccak256\n      0x00\n      swap1\n      sload\n      swap1\n      0x0100\n      exp\n      swap1\n      div\n      0xff\n      and\n        /* \"BankingSystem/BankingSystem.sol\":1899:1919  !hasLoan[msg.sender] */\n      iszero\n        /* \"BankingSystem/BankingSystem.sol\":1891:1952  require(!hasLoan[msg.sender], \"Existing loan not yet repaid\") */\n      tag_95\n      jumpi\n      mload(0x40)\n      0x08c379a000000000000000000000000000000000000000000000000000000000\n      dup2\n      mstore\n      0x04\n      add\n      tag_96\n      swap1\n      tag_97\n      jump\t// in\n    tag_96:\n      mload(0x40)\n      dup1\n      swap2\n      sub\n      swap1\n      revert\n    tag_95:\n        /* \"BankingSystem/BankingSystem.sol\":1981:1982  0 */\n      0x00\n        /* \"BankingSystem/BankingSystem.sol\":1971:1978  _amount */\n      dup2\n        /* \"BankingSystem/BankingSystem.sol\":1971:1982  _amount > 0 */\n      gt\n        /* \"BankingSystem/BankingSystem.sol\":1963:2021  require(_amount > 0, \"Loan amount must be greater than 0\") */\n      tag_98\n      jumpi\n      mload(0x40)\n      0x08c379a000000000000000000000000000000000000000000000000000000000\n      dup2\n      mstore\n      0x04\n      add\n      tag_99\n      swap1\n      tag_100\n      jump\t// in\n    tag_99:\n      mload(0x40)\n      dup1\n      swap2\n      sub\n      swap1\n      revert\n    tag_98:\n        /* \"BankingSystem/BankingSystem.sol\":2074:2075  2 */\n      0x02\n        /* \"BankingSystem/BankingSystem.sol\":2051:2059  balances */\n      0x01\n        /* \"BankingSystem/BankingSystem.sol\":2051:2071  balances[msg.sender] */\n      0x00\n        /* \"BankingSystem/BankingSystem.sol\":2060:2070  msg.sender */\n      caller\n        /* \"BankingSystem/BankingSystem.sol\":2051:2071  balances[msg.sender] */\n      0xffffffffffffffffffffffffffffffffffffffff\n      and\n      0xffffffffffffffffffffffffffffffffffffffff\n      and\n      dup2\n      mstore\n      0x20\n      add\n      swap1\n      dup2\n      mstore\n      0x20\n      add\n      0x00\n      keccak256\n      sload\n        /* \"BankingSystem/BankingSystem.sol\":2051:2075  balances[msg.sender] * 2 */\n      tag_101\n      swap2\n      swap1\n      tag_102\n      jump\t// in\n    tag_101:\n        /* \"BankingSystem/BankingSystem.sol\":2040:2047  _amount */\n      dup2\n        /* \"BankingSystem/BankingSystem.sol\":2040:2075  _amount <= balances[msg.sender] * 2 */\n      gt\n      iszero\n        /* \"BankingSystem/BankingSystem.sol\":2032:2118  require(_amount <= balances[msg.sender] * 2, \"Loan amount exceeds double the balance\") */\n      tag_103\n      jumpi\n      mload(0x40)\n      0x08c379a000000000000000000000000000000000000000000000000000000000\n      dup2\n      mstore\n      0x04\n      add\n      tag_104\n      swap1\n      tag_105\n      jump\t// in\n    tag_104:\n      mload(0x40)\n      dup1\n      swap2\n      sub\n      swap1\n      revert\n    tag_103:\n        /* \"BankingSystem/BankingSystem.sol\":2151:2155  true */\n      0x01\n        /* \"BankingSystem/BankingSystem.sol\":2129:2136  hasLoan */\n      0x03\n        /* \"BankingSystem/BankingSystem.sol\":2129:2148  hasLoan[msg.sender] */\n      0x00\n        /* \"BankingSystem/BankingSystem.sol\":2137:2147  msg.sender */\n      caller\n        /* \"BankingSystem/BankingSystem.sol\":2129:2148  hasLoan[msg.sender] */\n      0xffffffffffffffffffffffffffffffffffffffff\n      and\n      0xffffffffffffffffffffffffffffffffffffffff\n      and\n      dup2\n      mstore\n      0x20\n      add\n      swap1\n      dup2\n      mstore\n      0x20\n      add\n      0x00\n      keccak256\n      0x00\n        /* \"BankingSystem/BankingSystem.sol\":2129:2155  hasLoan[msg.sender] = true */\n      0x0100\n      exp\n      dup2\n      sload\n      dup2\n      0xff\n      mul\n      not\n      and\n      swap1\n      dup4\n      iszero\n      iszero\n      mul\n      or\n      swap1\n      sstore\n      pop\n        /* \"BankingSystem/BankingSystem.sol\":2190:2197  _amount */\n      dup1\n        /* \"BankingSystem/BankingSystem.sol\":2166:2174  balances */\n      0x01\n        /* \"BankingSystem/BankingSystem.sol\":2166:2186  balances[msg.sender] */\n      0x00\n        /* \"BankingSystem/BankingSystem.sol\":2175:2185  msg.sender */\n      caller\n        /* \"BankingSystem/BankingSystem.sol\":2166:2186  balances[msg.sender] */\n      0xffffffffffffffffffffffffffffffffffffffff\n      and\n      0xffffffffffffffffffffffffffffffffffffffff\n      and\n      dup2\n      mstore\n      0x20\n      add\n      swap1\n      dup2\n      mstore\n      0x20\n      add\n      0x00\n      keccak256\n      0x00\n        /* \"BankingSystem/BankingSystem.sol\":2166:2197  balances[msg.sender] += _amount */\n      dup3\n      dup3\n      sload\n      tag_106\n      swap2\n      swap1\n      tag_107\n      jump\t// in\n    tag_106:\n      swap3\n      pop\n      pop\n      dup2\n      swap1\n      sstore\n      pop\n        /* \"BankingSystem/BankingSystem.sol\":2227:2237  msg.sender */\n      caller\n        /* \"BankingSystem/BankingSystem.sol\":2213:2247  LoanRequested(msg.sender, _amount) */\n      0xffffffffffffffffffffffffffffffffffffffff\n      and\n      0x06c22e520074f676b380b03ffba06f2ccf61e51cbeee2a4e084b80a19d2fc237\n        /* \"BankingSystem/BankingSystem.sol\":2239:2246  _amount */\n      dup3\n        /* \"BankingSystem/BankingSystem.sol\":2213:2247  LoanRequested(msg.sender, _amount) */\n      mload(0x40)\n      tag_108\n      swap2\n      swap1\n      tag_19\n      jump\t// in\n    tag_108:\n      mload(0x40)\n      dup1\n      swap2\n      sub\n      swap1\n      log2\n        /* \"BankingSystem/BankingSystem.sol\":1812:2255  function requestLoan(uint256 _amount) external onlyExistingCustomer {... */\n      pop\n      jump\t// out\n        /* \"BankingSystem/BankingSystem.sol\":2940:3035  function changeAdmin(address _newAdmin) external onlyAdmin {... */\n    tag_48:\n        /* \"BankingSystem/BankingSystem.sol\":786:791  admin */\n      0x00\n      dup1\n      sload\n      swap1\n      0x0100\n      exp\n      swap1\n      div\n      0xffffffffffffffffffffffffffffffffffffffff\n      and\n        /* \"BankingSystem/BankingSystem.sol\":772:791  msg.sender == admin */\n      0xffffffffffffffffffffffffffffffffffffffff\n      and\n        /* \"BankingSystem/BankingSystem.sol\":772:782  msg.sender */\n      caller\n        /* \"BankingSystem/BankingSystem.sol\":772:791  msg.sender == admin */\n      0xffffffffffffffffffffffffffffffffffffffff\n      and\n      eq\n        /* \"BankingSystem/BankingSystem.sol\":764:830  require(msg.sender == admin, \"Only admin can perform this action\") */\n      tag_110\n      jumpi\n      mload(0x40)\n      0x08c379a000000000000000000000000000000000000000000000000000000000\n      dup2\n      mstore\n      0x04\n      add\n      tag_111\n      swap1\n      tag_85\n      jump\t// in\n    tag_111:\n      mload(0x40)\n      dup1\n      swap2\n      sub\n      swap1\n      revert\n    tag_110:\n        /* \"BankingSystem/BankingSystem.sol\":3018:3027  _newAdmin */\n      dup1\n        /* \"BankingSystem/BankingSystem.sol\":3010:3015  admin */\n      0x00\n      dup1\n        /* \"BankingSystem/BankingSystem.sol\":3010:3027  admin = _newAdmin */\n      0x0100\n      exp\n      dup2\n      sload\n      dup2\n      0xffffffffffffffffffffffffffffffffffffffff\n      mul\n      not\n      and\n      swap1\n      dup4\n      0xffffffffffffffffffffffffffffffffffffffff\n      and\n      mul\n      or\n      swap1\n      sstore\n      pop\n        /* \"BankingSystem/BankingSystem.sol\":2940:3035  function changeAdmin(address _newAdmin) external onlyAdmin {... */\n      pop\n      jump\t// out\n        /* \"BankingSystem/BankingSystem.sol\":216:255  mapping(address => bool) public hasLoan */\n    tag_52:\n      mstore(0x20, 0x03)\n      dup1\n      0x00\n      mstore\n      keccak256(0x00, 0x40)\n      0x00\n      swap2\n      pop\n      sload\n      swap1\n      0x0100\n      exp\n      swap1\n      div\n      0xff\n      and\n      dup2\n      jump\t// out\n        /* \"BankingSystem/BankingSystem.sol\":2263:2932  function repayLoan(uint256 _amount) external onlyExistingCustomer {... */\n    tag_57:\n        /* \"BankingSystem/BankingSystem.sol\":909:919  isCustomer */\n      0x02\n        /* \"BankingSystem/BankingSystem.sol\":909:931  isCustomer[msg.sender] */\n      0x00\n        /* \"BankingSystem/BankingSystem.sol\":920:930  msg.sender */\n      caller\n        /* \"BankingSystem/BankingSystem.sol\":909:931  isCustomer[msg.sender] */\n      0xffffffffffffffffffffffffffffffffffffffff\n      and\n      0xffffffffffffffffffffffffffffffffffffffff\n      and\n      dup2\n      mstore\n      0x20\n      add\n      swap1\n      dup2\n      mstore\n      0x20\n      add\n      0x00\n      keccak256\n      0x00\n      swap1\n      sload\n      swap1\n      0x0100\n      exp\n      swap1\n      div\n      0xff\n      and\n        /* \"BankingSystem/BankingSystem.sol\":901:959  require(isCustomer[msg.sender], \"Customer does not exist\") */\n      tag_114\n      jumpi\n      mload(0x40)\n      0x08c379a000000000000000000000000000000000000000000000000000000000\n      dup2\n      mstore\n      0x04\n      add\n      tag_115\n      swap1\n      tag_72\n      jump\t// in\n    tag_115:\n      mload(0x40)\n      dup1\n      swap2\n      sub\n      swap1\n      revert\n    tag_114:\n        /* \"BankingSystem/BankingSystem.sol\":2348:2355  hasLoan */\n      0x03\n        /* \"BankingSystem/BankingSystem.sol\":2348:2367  hasLoan[msg.sender] */\n      0x00\n        /* \"BankingSystem/BankingSystem.sol\":2356:2366  msg.sender */\n      caller\n        /* \"BankingSystem/BankingSystem.sol\":2348:2367  hasLoan[msg.sender] */\n      0xffffffffffffffffffffffffffffffffffffffff\n      and\n      0xffffffffffffffffffffffffffffffffffffffff\n      and\n      dup2\n      mstore\n      0x20\n      add\n      swap1\n      dup2\n      mstore\n      0x20\n      add\n      0x00\n      keccak256\n      0x00\n      swap1\n      sload\n      swap1\n      0x0100\n      exp\n      swap1\n      div\n      0xff\n      and\n        /* \"BankingSystem/BankingSystem.sol\":2340:2397  require(hasLoan[msg.sender], \"No existing loan to repay\") */\n      tag_117\n      jumpi\n      mload(0x40)\n      0x08c379a000000000000000000000000000000000000000000000000000000000\n      dup2\n      mstore\n      0x04\n      add\n      tag_118\n      swap1\n      tag_119\n      jump\t// in\n    tag_118:\n      mload(0x40)\n      dup1\n      swap2\n      sub\n      swap1\n      revert\n    tag_117:\n        /* \"BankingSystem/BankingSystem.sol\":2426:2427  0 */\n      0x00\n        /* \"BankingSystem/BankingSystem.sol\":2416:2423  _amount */\n      dup2\n        /* \"BankingSystem/BankingSystem.sol\":2416:2427  _amount > 0 */\n      gt\n        /* \"BankingSystem/BankingSystem.sol\":2408:2471  require(_amount > 0, \"Repayment amount must be greater than 0\") */\n      tag_120\n      jumpi\n      mload(0x40)\n      0x08c379a000000000000000000000000000000000000000000000000000000000\n      dup2\n      mstore\n      0x04\n      add\n      tag_121\n      swap1\n      tag_122\n      jump\t// in\n    tag_121:\n      mload(0x40)\n      dup1\n      swap2\n      sub\n      swap1\n      revert\n    tag_120:\n        /* \"BankingSystem/BankingSystem.sol\":2501:2509  balances */\n      0x01\n        /* \"BankingSystem/BankingSystem.sol\":2501:2521  balances[msg.sender] */\n      0x00\n        /* \"BankingSystem/BankingSystem.sol\":2510:2520  msg.sender */\n      caller\n        /* \"BankingSystem/BankingSystem.sol\":2501:2521  balances[msg.sender] */\n      0xffffffffffffffffffffffffffffffffffffffff\n      and\n      0xffffffffffffffffffffffffffffffffffffffff\n      and\n      dup2\n      mstore\n      0x20\n      add\n      swap1\n      dup2\n      mstore\n      0x20\n      add\n      0x00\n      keccak256\n      sload\n        /* \"BankingSystem/BankingSystem.sol\":2490:2497  _amount */\n      dup2\n        /* \"BankingSystem/BankingSystem.sol\":2490:2521  _amount <= balances[msg.sender] */\n      gt\n      iszero\n        /* \"BankingSystem/BankingSystem.sol\":2482:2565  require(_amount <= balances[msg.sender], \"Insufficient balance for loan repayment\") */\n      tag_123\n      jumpi\n      mload(0x40)\n      0x08c379a000000000000000000000000000000000000000000000000000000000\n      dup2\n      mstore\n      0x04\n      add\n      tag_124\n      swap1\n      tag_125\n      jump\t// in\n    tag_124:\n      mload(0x40)\n      dup1\n      swap2\n      sub\n      swap1\n      revert\n    tag_123:\n        /* \"BankingSystem/BankingSystem.sol\":2600:2607  _amount */\n      dup1\n        /* \"BankingSystem/BankingSystem.sol\":2576:2584  balances */\n      0x01\n        /* \"BankingSystem/BankingSystem.sol\":2576:2596  balances[msg.sender] */\n      0x00\n        /* \"BankingSystem/BankingSystem.sol\":2585:2595  msg.sender */\n      caller\n        /* \"BankingSystem/BankingSystem.sol\":2576:2596  balances[msg.sender] */\n      0xffffffffffffffffffffffffffffffffffffffff\n      and\n      0xffffffffffffffffffffffffffffffffffffffff\n      and\n      dup2\n      mstore\n      0x20\n      add\n      swap1\n      dup2\n      mstore\n      0x20\n      add\n      0x00\n      keccak256\n      0x00\n        /* \"BankingSystem/BankingSystem.sol\":2576:2607  balances[msg.sender] -= _amount */\n      dup3\n      dup3\n      sload\n      tag_126\n      swap2\n      swap1\n      tag_78\n      jump\t// in\n    tag_126:\n      swap3\n      pop\n      pop\n      dup2\n      swap1\n      sstore\n      pop\n        /* \"BankingSystem/BankingSystem.sol\":2674:2677  100 */\n      0x64\n        /* \"BankingSystem/BankingSystem.sol\":2655:2671  loanInterestRate */\n      sload(0x04)\n        /* \"BankingSystem/BankingSystem.sol\":2632:2640  balances */\n      0x01\n        /* \"BankingSystem/BankingSystem.sol\":2632:2652  balances[msg.sender] */\n      0x00\n        /* \"BankingSystem/BankingSystem.sol\":2641:2651  msg.sender */\n      caller\n        /* \"BankingSystem/BankingSystem.sol\":2632:2652  balances[msg.sender] */\n      0xffffffffffffffffffffffffffffffffffffffff\n      and\n      0xffffffffffffffffffffffffffffffffffffffff\n      and\n      dup2\n      mstore\n      0x20\n      add\n      swap1\n      dup2\n      mstore\n      0x20\n      add\n      0x00\n      keccak256\n      sload\n        /* \"BankingSystem/BankingSystem.sol\":2632:2671  balances[msg.sender] * loanInterestRate */\n      tag_127\n      swap2\n      swap1\n      tag_102\n      jump\t// in\n    tag_127:\n        /* \"BankingSystem/BankingSystem.sol\":2632:2677  balances[msg.sender] * loanInterestRate / 100 */\n      tag_128\n      swap2\n      swap1\n      tag_129\n      jump\t// in\n    tag_128:\n        /* \"BankingSystem/BankingSystem.sol\":2622:2629  _amount */\n      dup2\n        /* \"BankingSystem/BankingSystem.sol\":2622:2677  _amount < balances[msg.sender] * loanInterestRate / 100 */\n      lt\n        /* \"BankingSystem/BankingSystem.sol\":2618:2837  if (_amount < balances[msg.sender] * loanInterestRate / 100) {... */\n      iszero\n      tag_130\n      jumpi\n        /* \"BankingSystem/BankingSystem.sol\":2746:2749  100 */\n      0x64\n        /* \"BankingSystem/BankingSystem.sol\":2728:2743  loanPenaltyRate */\n      sload(0x05)\n        /* \"BankingSystem/BankingSystem.sol\":2718:2725  _amount */\n      dup3\n        /* \"BankingSystem/BankingSystem.sol\":2718:2743  _amount * loanPenaltyRate */\n      tag_131\n      swap2\n      swap1\n      tag_102\n      jump\t// in\n    tag_131:\n        /* \"BankingSystem/BankingSystem.sol\":2718:2749  _amount * loanPenaltyRate / 100 */\n      tag_132\n      swap2\n      swap1\n      tag_129\n      jump\t// in\n    tag_132:\n        /* \"BankingSystem/BankingSystem.sol\":2694:2702  balances */\n      0x01\n        /* \"BankingSystem/BankingSystem.sol\":2694:2714  balances[msg.sender] */\n      0x00\n        /* \"BankingSystem/BankingSystem.sol\":2703:2713  msg.sender */\n      caller\n        /* \"BankingSystem/BankingSystem.sol\":2694:2714  balances[msg.sender] */\n      0xffffffffffffffffffffffffffffffffffffffff\n      and\n      0xffffffffffffffffffffffffffffffffffffffff\n      and\n      dup2\n      mstore\n      0x20\n      add\n      swap1\n      dup2\n      mstore\n      0x20\n      add\n      0x00\n      keccak256\n      0x00\n        /* \"BankingSystem/BankingSystem.sol\":2694:2749  balances[msg.sender] -= _amount * loanPenaltyRate / 100 */\n      dup3\n      dup3\n      sload\n      tag_133\n      swap2\n      swap1\n      tag_78\n      jump\t// in\n    tag_133:\n      swap3\n      pop\n      pop\n      dup2\n      swap1\n      sstore\n      pop\n        /* \"BankingSystem/BankingSystem.sol\":2781:2791  msg.sender */\n      caller\n        /* \"BankingSystem/BankingSystem.sol\":2769:2825  LoanPenalty(msg.sender, _amount * loanPenaltyRate / 100) */\n      0xffffffffffffffffffffffffffffffffffffffff\n      and\n      0xdcb76cd7e0cd44183c803ac94f856167fa3f383e065054d948a6e655631c3960\n        /* \"BankingSystem/BankingSystem.sol\":2821:2824  100 */\n      0x64\n        /* \"BankingSystem/BankingSystem.sol\":2803:2818  loanPenaltyRate */\n      sload(0x05)\n        /* \"BankingSystem/BankingSystem.sol\":2793:2800  _amount */\n      dup5\n        /* \"BankingSystem/BankingSystem.sol\":2793:2818  _amount * loanPenaltyRate */\n      tag_134\n      swap2\n      swap1\n      tag_102\n      jump\t// in\n    tag_134:\n        /* \"BankingSystem/BankingSystem.sol\":2793:2824  _amount * loanPenaltyRate / 100 */\n      tag_135\n      swap2\n      swap1\n      tag_129\n      jump\t// in\n    tag_135:\n        /* \"BankingSystem/BankingSystem.sol\":2769:2825  LoanPenalty(msg.sender, _amount * loanPenaltyRate / 100) */\n      mload(0x40)\n      tag_136\n      swap2\n      swap1\n      tag_19\n      jump\t// in\n    tag_136:\n      mload(0x40)\n      dup1\n      swap2\n      sub\n      swap1\n      log2\n        /* \"BankingSystem/BankingSystem.sol\":2618:2837  if (_amount < balances[msg.sender] * loanInterestRate / 100) {... */\n    tag_130:\n        /* \"BankingSystem/BankingSystem.sol\":2869:2874  false */\n      0x00\n        /* \"BankingSystem/BankingSystem.sol\":2847:2854  hasLoan */\n      0x03\n        /* \"BankingSystem/BankingSystem.sol\":2847:2866  hasLoan[msg.sender] */\n      0x00\n        /* \"BankingSystem/BankingSystem.sol\":2855:2865  msg.sender */\n      caller\n        /* \"BankingSystem/BankingSystem.sol\":2847:2866  hasLoan[msg.sender] */\n      0xffffffffffffffffffffffffffffffffffffffff\n      and\n      0xffffffffffffffffffffffffffffffffffffffff\n      and\n      dup2\n      mstore\n      0x20\n      add\n      swap1\n      dup2\n      mstore\n      0x20\n      add\n      0x00\n      keccak256\n      0x00\n        /* \"BankingSystem/BankingSystem.sol\":2847:2874  hasLoan[msg.sender] = false */\n      0x0100\n      exp\n      dup2\n      sload\n      dup2\n      0xff\n      mul\n      not\n      and\n      swap1\n      dup4\n      iszero\n      iszero\n      mul\n      or\n      swap1\n      sstore\n      pop\n        /* \"BankingSystem/BankingSystem.sol\":2904:2914  msg.sender */\n      caller\n        /* \"BankingSystem/BankingSystem.sol\":2890:2924  LoanRepayment(msg.sender, _amount) */\n      0xffffffffffffffffffffffffffffffffffffffff\n      and\n      0x6f8286e47ace49394f4a28298c2ba2c5df760a3872931a94e60ab7fe82b809cd\n        /* \"BankingSystem/BankingSystem.sol\":2916:2923  _amount */\n      dup3\n        /* \"BankingSystem/BankingSystem.sol\":2890:2924  LoanRepayment(msg.sender, _amount) */\n      mload(0x40)\n      tag_137\n      swap2\n      swap1\n      tag_19\n      jump\t// in\n    tag_137:\n      mload(0x40)\n      dup1\n      swap2\n      sub\n      swap1\n      log2\n        /* \"BankingSystem/BankingSystem.sol\":2263:2932  function repayLoan(uint256 _amount) external onlyExistingCustomer {... */\n      pop\n      jump\t// out\n        /* \"BankingSystem/BankingSystem.sol\":262:297  uint256 public loanInterestRate = 5 */\n    tag_60:\n      sload(0x04)\n      dup2\n      jump\t// out\n        /* \"BankingSystem/BankingSystem.sol\":1282:1511  function deposit() external payable onlyExistingCustomer {... */\n    tag_63:\n        /* \"BankingSystem/BankingSystem.sol\":909:919  isCustomer */\n      0x02\n        /* \"BankingSystem/BankingSystem.sol\":909:931  isCustomer[msg.sender] */\n      0x00\n        /* \"BankingSystem/BankingSystem.sol\":920:930  msg.sender */\n      caller\n        /* \"BankingSystem/BankingSystem.sol\":909:931  isCustomer[msg.sender] */\n      0xffffffffffffffffffffffffffffffffffffffff\n      and\n      0xffffffffffffffffffffffffffffffffffffffff\n      and\n      dup2\n      mstore\n      0x20\n      add\n      swap1\n      dup2\n      mstore\n      0x20\n      add\n      0x00\n      keccak256\n      0x00\n      swap1\n      sload\n      swap1\n      0x0100\n      exp\n      swap1\n      div\n      0xff\n      and\n        /* \"BankingSystem/BankingSystem.sol\":901:959  require(isCustomer[msg.sender], \"Customer does not exist\") */\n      tag_139\n      jumpi\n      mload(0x40)\n      0x08c379a000000000000000000000000000000000000000000000000000000000\n      dup2\n      mstore\n      0x04\n      add\n      tag_140\n      swap1\n      tag_72\n      jump\t// in\n    tag_140:\n      mload(0x40)\n      dup1\n      swap2\n      sub\n      swap1\n      revert\n    tag_139:\n        /* \"BankingSystem/BankingSystem.sol\":1370:1371  0 */\n      0x00\n        /* \"BankingSystem/BankingSystem.sol\":1358:1367  msg.value */\n      callvalue\n        /* \"BankingSystem/BankingSystem.sol\":1358:1371  msg.value > 0 */\n      gt\n        /* \"BankingSystem/BankingSystem.sol\":1350:1413  require(msg.value > 0, \"Deposit amount must be greater than 0\") */\n      tag_142\n      jumpi\n      mload(0x40)\n      0x08c379a000000000000000000000000000000000000000000000000000000000\n      dup2\n      mstore\n      0x04\n      add\n      tag_143\n      swap1\n      tag_144\n      jump\t// in\n    tag_143:\n      mload(0x40)\n      dup1\n      swap2\n      sub\n      swap1\n      revert\n    tag_142:\n        /* \"BankingSystem/BankingSystem.sol\":1448:1457  msg.value */\n      callvalue\n        /* \"BankingSystem/BankingSystem.sol\":1424:1432  balances */\n      0x01\n        /* \"BankingSystem/BankingSystem.sol\":1424:1444  balances[msg.sender] */\n      0x00\n        /* \"BankingSystem/BankingSystem.sol\":1433:1443  msg.sender */\n      caller\n        /* \"BankingSystem/BankingSystem.sol\":1424:1444  balances[msg.sender] */\n      0xffffffffffffffffffffffffffffffffffffffff\n      and\n      0xffffffffffffffffffffffffffffffffffffffff\n      and\n      dup2\n      mstore\n      0x20\n      add\n      swap1\n      dup2\n      mstore\n      0x20\n      add\n      0x00\n      keccak256\n      0x00\n        /* \"BankingSystem/BankingSystem.sol\":1424:1457  balances[msg.sender] += msg.value */\n      dup3\n      dup3\n      sload\n      tag_145\n      swap2\n      swap1\n      tag_107\n      jump\t// in\n    tag_145:\n      swap3\n      pop\n      pop\n      dup2\n      swap1\n      sstore\n      pop\n        /* \"BankingSystem/BankingSystem.sol\":1481:1491  msg.sender */\n      caller\n        /* \"BankingSystem/BankingSystem.sol\":1473:1503  Deposit(msg.sender, msg.value) */\n      0xffffffffffffffffffffffffffffffffffffffff\n      and\n      0xe1fffcc4923d04b559f4d29a8bfc6cda04eb5b0d3c460751c2402c5c5cc9109c\n        /* \"BankingSystem/BankingSystem.sol\":1493:1502  msg.value */\n      callvalue\n        /* \"BankingSystem/BankingSystem.sol\":1473:1503  Deposit(msg.sender, msg.value) */\n      mload(0x40)\n      tag_146\n      swap2\n      swap1\n      tag_19\n      jump\t// in\n    tag_146:\n      mload(0x40)\n      dup1\n      swap2\n      sub\n      swap1\n      log2\n        /* \"BankingSystem/BankingSystem.sol\":1282:1511  function deposit() external payable onlyExistingCustomer {... */\n      jump\t// out\n        /* \"BankingSystem/BankingSystem.sol\":90:110  address public admin */\n    tag_66:\n      0x00\n      dup1\n      sload\n      swap1\n      0x0100\n      exp\n      swap1\n      div\n      0xffffffffffffffffffffffffffffffffffffffff\n      and\n      dup2\n      jump\t// out\n        /* \"#utility.yul\":7:84   */\n    tag_147:\n        /* \"#utility.yul\":44:51   */\n      0x00\n        /* \"#utility.yul\":73:78   */\n      dup2\n        /* \"#utility.yul\":62:78   */\n      swap1\n      pop\n        /* \"#utility.yul\":7:84   */\n      swap2\n      swap1\n      pop\n      jump\t// out\n        /* \"#utility.yul\":90:208   */\n    tag_148:\n        /* \"#utility.yul\":177:201   */\n      tag_189\n        /* \"#utility.yul\":195:200   */\n      dup2\n        /* \"#utility.yul\":177:201   */\n      tag_147\n      jump\t// in\n    tag_189:\n        /* \"#utility.yul\":172:175   */\n      dup3\n        /* \"#utility.yul\":165:202   */\n      mstore\n        /* \"#utility.yul\":90:208   */\n      pop\n      pop\n      jump\t// out\n        /* \"#utility.yul\":214:436   */\n    tag_19:\n        /* \"#utility.yul\":307:311   */\n      0x00\n        /* \"#utility.yul\":345:347   */\n      0x20\n        /* \"#utility.yul\":334:343   */\n      dup3\n        /* \"#utility.yul\":330:348   */\n      add\n        /* \"#utility.yul\":322:348   */\n      swap1\n      pop\n        /* \"#utility.yul\":358:429   */\n      tag_191\n        /* \"#utility.yul\":426:427   */\n      0x00\n        /* \"#utility.yul\":415:424   */\n      dup4\n        /* \"#utility.yul\":411:428   */\n      add\n        /* \"#utility.yul\":402:408   */\n      dup5\n        /* \"#utility.yul\":358:429   */\n      tag_148\n      jump\t// in\n    tag_191:\n        /* \"#utility.yul\":214:436   */\n      swap3\n      swap2\n      pop\n      pop\n      jump\t// out\n        /* \"#utility.yul\":523:640   */\n    tag_150:\n        /* \"#utility.yul\":632:633   */\n      0x00\n        /* \"#utility.yul\":629:630   */\n      dup1\n        /* \"#utility.yul\":622:634   */\n      revert\n        /* \"#utility.yul\":769:895   */\n    tag_152:\n        /* \"#utility.yul\":806:813   */\n      0x00\n        /* \"#utility.yul\":846:888   */\n      0xffffffffffffffffffffffffffffffffffffffff\n        /* \"#utility.yul\":839:844   */\n      dup3\n        /* \"#utility.yul\":835:889   */\n      and\n        /* \"#utility.yul\":824:889   */\n      swap1\n      pop\n        /* \"#utility.yul\":769:895   */\n      swap2\n      swap1\n      pop\n      jump\t// out\n        /* \"#utility.yul\":901:997   */\n    tag_153:\n        /* \"#utility.yul\":938:945   */\n      0x00\n        /* \"#utility.yul\":967:991   */\n      tag_197\n        /* \"#utility.yul\":985:990   */\n      dup3\n        /* \"#utility.yul\":967:991   */\n      tag_152\n      jump\t// in\n    tag_197:\n        /* \"#utility.yul\":956:991   */\n      swap1\n      pop\n        /* \"#utility.yul\":901:997   */\n      swap2\n      swap1\n      pop\n      jump\t// out\n        /* \"#utility.yul\":1003:1125   */\n    tag_154:\n        /* \"#utility.yul\":1076:1100   */\n      tag_199\n        /* \"#utility.yul\":1094:1099   */\n      dup2\n        /* \"#utility.yul\":1076:1100   */\n      tag_153\n      jump\t// in\n    tag_199:\n        /* \"#utility.yul\":1069:1074   */\n      dup2\n        /* \"#utility.yul\":1066:1101   */\n      eq\n        /* \"#utility.yul\":1056:1119   */\n      tag_200\n      jumpi\n        /* \"#utility.yul\":1115:1116   */\n      0x00\n        /* \"#utility.yul\":1112:1113   */\n      dup1\n        /* \"#utility.yul\":1105:1117   */\n      revert\n        /* \"#utility.yul\":1056:1119   */\n    tag_200:\n        /* \"#utility.yul\":1003:1125   */\n      pop\n      jump\t// out\n        /* \"#utility.yul\":1131:1270   */\n    tag_155:\n        /* \"#utility.yul\":1177:1182   */\n      0x00\n        /* \"#utility.yul\":1215:1221   */\n      dup2\n        /* \"#utility.yul\":1202:1222   */\n      calldataload\n        /* \"#utility.yul\":1193:1222   */\n      swap1\n      pop\n        /* \"#utility.yul\":1231:1264   */\n      tag_202\n        /* \"#utility.yul\":1258:1263   */\n      dup2\n        /* \"#utility.yul\":1231:1264   */\n      tag_154\n      jump\t// in\n    tag_202:\n        /* \"#utility.yul\":1131:1270   */\n      swap3\n      swap2\n      pop\n      pop\n      jump\t// out\n        /* \"#utility.yul\":1276:1605   */\n    tag_23:\n        /* \"#utility.yul\":1335:1341   */\n      0x00\n        /* \"#utility.yul\":1384:1386   */\n      0x20\n        /* \"#utility.yul\":1372:1381   */\n      dup3\n        /* \"#utility.yul\":1363:1370   */\n      dup5\n        /* \"#utility.yul\":1359:1382   */\n      sub\n        /* \"#utility.yul\":1355:1387   */\n      slt\n        /* \"#utility.yul\":1352:1471   */\n      iszero\n      tag_204\n      jumpi\n        /* \"#utility.yul\":1390:1469   */\n      tag_205\n      tag_150\n      jump\t// in\n    tag_205:\n        /* \"#utility.yul\":1352:1471   */\n    tag_204:\n        /* \"#utility.yul\":1510:1511   */\n      0x00\n        /* \"#utility.yul\":1535:1588   */\n      tag_206\n        /* \"#utility.yul\":1580:1587   */\n      dup5\n        /* \"#utility.yul\":1571:1577   */\n      dup3\n        /* \"#utility.yul\":1560:1569   */\n      dup6\n        /* \"#utility.yul\":1556:1578   */\n      add\n        /* \"#utility.yul\":1535:1588   */\n      tag_155\n      jump\t// in\n    tag_206:\n        /* \"#utility.yul\":1525:1588   */\n      swap2\n      pop\n        /* \"#utility.yul\":1481:1598   */\n      pop\n        /* \"#utility.yul\":1276:1605   */\n      swap3\n      swap2\n      pop\n      pop\n      jump\t// out\n        /* \"#utility.yul\":1611:1701   */\n    tag_156:\n        /* \"#utility.yul\":1645:1652   */\n      0x00\n        /* \"#utility.yul\":1688:1693   */\n      dup2\n        /* \"#utility.yul\":1681:1694   */\n      iszero\n        /* \"#utility.yul\":1674:1695   */\n      iszero\n        /* \"#utility.yul\":1663:1695   */\n      swap1\n      pop\n        /* \"#utility.yul\":1611:1701   */\n      swap2\n      swap1\n      pop\n      jump\t// out\n        /* \"#utility.yul\":1707:1816   */\n    tag_157:\n        /* \"#utility.yul\":1788:1809   */\n      tag_209\n        /* \"#utility.yul\":1803:1808   */\n      dup2\n        /* \"#utility.yul\":1788:1809   */\n      tag_156\n      jump\t// in\n    tag_209:\n        /* \"#utility.yul\":1783:1786   */\n      dup3\n        /* \"#utility.yul\":1776:1810   */\n      mstore\n        /* \"#utility.yul\":1707:1816   */\n      pop\n      pop\n      jump\t// out\n        /* \"#utility.yul\":1822:2032   */\n    tag_31:\n        /* \"#utility.yul\":1909:1913   */\n      0x00\n        /* \"#utility.yul\":1947:1949   */\n      0x20\n        /* \"#utility.yul\":1936:1945   */\n      dup3\n        /* \"#utility.yul\":1932:1950   */\n      add\n        /* \"#utility.yul\":1924:1950   */\n      swap1\n      pop\n        /* \"#utility.yul\":1960:2025   */\n      tag_211\n        /* \"#utility.yul\":2022:2023   */\n      0x00\n        /* \"#utility.yul\":2011:2020   */\n      dup4\n        /* \"#utility.yul\":2007:2024   */\n      add\n        /* \"#utility.yul\":1998:2004   */\n      dup5\n        /* \"#utility.yul\":1960:2025   */\n      tag_157\n      jump\t// in\n    tag_211:\n        /* \"#utility.yul\":1822:2032   */\n      swap3\n      swap2\n      pop\n      pop\n      jump\t// out\n        /* \"#utility.yul\":2038:2160   */\n    tag_158:\n        /* \"#utility.yul\":2111:2135   */\n      tag_213\n        /* \"#utility.yul\":2129:2134   */\n      dup2\n        /* \"#utility.yul\":2111:2135   */\n      tag_147\n      jump\t// in\n    tag_213:\n        /* \"#utility.yul\":2104:2109   */\n      dup2\n        /* \"#utility.yul\":2101:2136   */\n      eq\n        /* \"#utility.yul\":2091:2154   */\n      tag_214\n      jumpi\n        /* \"#utility.yul\":2150:2151   */\n      0x00\n        /* \"#utility.yul\":2147:2148   */\n      dup1\n        /* \"#utility.yul\":2140:2152   */\n      revert\n        /* \"#utility.yul\":2091:2154   */\n    tag_214:\n        /* \"#utility.yul\":2038:2160   */\n      pop\n      jump\t// out\n        /* \"#utility.yul\":2166:2305   */\n    tag_159:\n        /* \"#utility.yul\":2212:2217   */\n      0x00\n        /* \"#utility.yul\":2250:2256   */\n      dup2\n        /* \"#utility.yul\":2237:2257   */\n      calldataload\n        /* \"#utility.yul\":2228:2257   */\n      swap1\n      pop\n        /* \"#utility.yul\":2266:2299   */\n      tag_216\n        /* \"#utility.yul\":2293:2298   */\n      dup2\n        /* \"#utility.yul\":2266:2299   */\n      tag_158\n      jump\t// in\n    tag_216:\n        /* \"#utility.yul\":2166:2305   */\n      swap3\n      swap2\n      pop\n      pop\n      jump\t// out\n        /* \"#utility.yul\":2311:2640   */\n    tag_35:\n        /* \"#utility.yul\":2370:2376   */\n      0x00\n        /* \"#utility.yul\":2419:2421   */\n      0x20\n        /* \"#utility.yul\":2407:2416   */\n      dup3\n        /* \"#utility.yul\":2398:2405   */\n      dup5\n        /* \"#utility.yul\":2394:2417   */\n      sub\n        /* \"#utility.yul\":2390:2422   */\n      slt\n        /* \"#utility.yul\":2387:2506   */\n      iszero\n      tag_218\n      jumpi\n        /* \"#utility.yul\":2425:2504   */\n      tag_219\n      tag_150\n      jump\t// in\n    tag_219:\n        /* \"#utility.yul\":2387:2506   */\n    tag_218:\n        /* \"#utility.yul\":2545:2546   */\n      0x00\n        /* \"#utility.yul\":2570:2623   */\n      tag_220\n        /* \"#utility.yul\":2615:2622   */\n      dup5\n        /* \"#utility.yul\":2606:2612   */\n      dup3\n        /* \"#utility.yul\":2595:2604   */\n      dup6\n        /* \"#utility.yul\":2591:2613   */\n      add\n        /* \"#utility.yul\":2570:2623   */\n      tag_159\n      jump\t// in\n    tag_220:\n        /* \"#utility.yul\":2560:2623   */\n      swap2\n      pop\n        /* \"#utility.yul\":2516:2633   */\n      pop\n        /* \"#utility.yul\":2311:2640   */\n      swap3\n      swap2\n      pop\n      pop\n      jump\t// out\n        /* \"#utility.yul\":2646:2764   */\n    tag_160:\n        /* \"#utility.yul\":2733:2757   */\n      tag_222\n        /* \"#utility.yul\":2751:2756   */\n      dup2\n        /* \"#utility.yul\":2733:2757   */\n      tag_153\n      jump\t// in\n    tag_222:\n        /* \"#utility.yul\":2728:2731   */\n      dup3\n        /* \"#utility.yul\":2721:2758   */\n      mstore\n        /* \"#utility.yul\":2646:2764   */\n      pop\n      pop\n      jump\t// out\n        /* \"#utility.yul\":2770:2992   */\n    tag_68:\n        /* \"#utility.yul\":2863:2867   */\n      0x00\n        /* \"#utility.yul\":2901:2903   */\n      0x20\n        /* \"#utility.yul\":2890:2899   */\n      dup3\n        /* \"#utility.yul\":2886:2904   */\n      add\n        /* \"#utility.yul\":2878:2904   */\n      swap1\n      pop\n        /* \"#utility.yul\":2914:2985   */\n      tag_224\n        /* \"#utility.yul\":2982:2983   */\n      0x00\n        /* \"#utility.yul\":2971:2980   */\n      dup4\n        /* \"#utility.yul\":2967:2984   */\n      add\n        /* \"#utility.yul\":2958:2964   */\n      dup5\n        /* \"#utility.yul\":2914:2985   */\n      tag_160\n      jump\t// in\n    tag_224:\n        /* \"#utility.yul\":2770:2992   */\n      swap3\n      swap2\n      pop\n      pop\n      jump\t// out\n        /* \"#utility.yul\":2998:3167   */\n    tag_161:\n        /* \"#utility.yul\":3082:3093   */\n      0x00\n        /* \"#utility.yul\":3116:3122   */\n      dup3\n        /* \"#utility.yul\":3111:3114   */\n      dup3\n        /* \"#utility.yul\":3104:3123   */\n      mstore\n        /* \"#utility.yul\":3156:3160   */\n      0x20\n        /* \"#utility.yul\":3151:3154   */\n      dup3\n        /* \"#utility.yul\":3147:3161   */\n      add\n        /* \"#utility.yul\":3132:3161   */\n      swap1\n      pop\n        /* \"#utility.yul\":2998:3167   */\n      swap3\n      swap2\n      pop\n      pop\n      jump\t// out\n        /* \"#utility.yul\":3173:3346   */\n    tag_162:\n        /* \"#utility.yul\":3313:3338   */\n      0x437573746f6d657220646f6573206e6f74206578697374000000000000000000\n        /* \"#utility.yul\":3309:3310   */\n      0x00\n        /* \"#utility.yul\":3301:3307   */\n      dup3\n        /* \"#utility.yul\":3297:3311   */\n      add\n        /* \"#utility.yul\":3290:3339   */\n      mstore\n        /* \"#utility.yul\":3173:3346   */\n      pop\n      jump\t// out\n        /* \"#utility.yul\":3352:3718   */\n    tag_163:\n        /* \"#utility.yul\":3494:3497   */\n      0x00\n        /* \"#utility.yul\":3515:3582   */\n      tag_228\n        /* \"#utility.yul\":3579:3581   */\n      0x17\n        /* \"#utility.yul\":3574:3577   */\n      dup4\n        /* \"#utility.yul\":3515:3582   */\n      tag_161\n      jump\t// in\n    tag_228:\n        /* \"#utility.yul\":3508:3582   */\n      swap2\n      pop\n        /* \"#utility.yul\":3591:3684   */\n      tag_229\n        /* \"#utility.yul\":3680:3683   */\n      dup3\n        /* \"#utility.yul\":3591:3684   */\n      tag_162\n      jump\t// in\n    tag_229:\n        /* \"#utility.yul\":3709:3711   */\n      0x20\n        /* \"#utility.yul\":3704:3707   */\n      dup3\n        /* \"#utility.yul\":3700:3712   */\n      add\n        /* \"#utility.yul\":3693:3712   */\n      swap1\n      pop\n        /* \"#utility.yul\":3352:3718   */\n      swap2\n      swap1\n      pop\n      jump\t// out\n        /* \"#utility.yul\":3724:4143   */\n    tag_72:\n        /* \"#utility.yul\":3890:3894   */\n      0x00\n        /* \"#utility.yul\":3928:3930   */\n      0x20\n        /* \"#utility.yul\":3917:3926   */\n      dup3\n        /* \"#utility.yul\":3913:3931   */\n      add\n        /* \"#utility.yul\":3905:3931   */\n      swap1\n      pop\n        /* \"#utility.yul\":3977:3986   */\n      dup2\n        /* \"#utility.yul\":3971:3975   */\n      dup2\n        /* \"#utility.yul\":3967:3987   */\n      sub\n        /* \"#utility.yul\":3963:3964   */\n      0x00\n        /* \"#utility.yul\":3952:3961   */\n      dup4\n        /* \"#utility.yul\":3948:3965   */\n      add\n        /* \"#utility.yul\":3941:3988   */\n      mstore\n        /* \"#utility.yul\":4005:4136   */\n      tag_231\n        /* \"#utility.yul\":4131:4135   */\n      dup2\n        /* \"#utility.yul\":4005:4136   */\n      tag_163\n      jump\t// in\n    tag_231:\n        /* \"#utility.yul\":3997:4136   */\n      swap1\n      pop\n        /* \"#utility.yul\":3724:4143   */\n      swap2\n      swap1\n      pop\n      jump\t// out\n        /* \"#utility.yul\":4149:4319   */\n    tag_164:\n        /* \"#utility.yul\":4289:4311   */\n      0x496e73756666696369656e742062616c616e6365000000000000000000000000\n        /* \"#utility.yul\":4285:4286   */\n      0x00\n        /* \"#utility.yul\":4277:4283   */\n      dup3\n        /* \"#utility.yul\":4273:4287   */\n      add\n        /* \"#utility.yul\":4266:4312   */\n      mstore\n        /* \"#utility.yul\":4149:4319   */\n      pop\n      jump\t// out\n        /* \"#utility.yul\":4325:4691   */\n    tag_165:\n        /* \"#utility.yul\":4467:4470   */\n      0x00\n        /* \"#utility.yul\":4488:4555   */\n      tag_234\n        /* \"#utility.yul\":4552:4554   */\n      0x14\n        /* \"#utility.yul\":4547:4550   */\n      dup4\n        /* \"#utility.yul\":4488:4555   */\n      tag_161\n      jump\t// in\n    tag_234:\n        /* \"#utility.yul\":4481:4555   */\n      swap2\n      pop\n        /* \"#utility.yul\":4564:4657   */\n      tag_235\n        /* \"#utility.yul\":4653:4656   */\n      dup3\n        /* \"#utility.yul\":4564:4657   */\n      tag_164\n      jump\t// in\n    tag_235:\n        /* \"#utility.yul\":4682:4684   */\n      0x20\n        /* \"#utility.yul\":4677:4680   */\n      dup3\n        /* \"#utility.yul\":4673:4685   */\n      add\n        /* \"#utility.yul\":4666:4685   */\n      swap1\n      pop\n        /* \"#utility.yul\":4325:4691   */\n      swap2\n      swap1\n      pop\n      jump\t// out\n        /* \"#utility.yul\":4697:5116   */\n    tag_76:\n        /* \"#utility.yul\":4863:4867   */\n      0x00\n        /* \"#utility.yul\":4901:4903   */\n      0x20\n        /* \"#utility.yul\":4890:4899   */\n      dup3\n        /* \"#utility.yul\":4886:4904   */\n      add\n        /* \"#utility.yul\":4878:4904   */\n      swap1\n      pop\n        /* \"#utility.yul\":4950:4959   */\n      dup2\n        /* \"#utility.yul\":4944:4948   */\n      dup2\n        /* \"#utility.yul\":4940:4960   */\n      sub\n        /* \"#utility.yul\":4936:4937   */\n      0x00\n        /* \"#utility.yul\":4925:4934   */\n      dup4\n        /* \"#utility.yul\":4921:4938   */\n      add\n        /* \"#utility.yul\":4914:4961   */\n      mstore\n        /* \"#utility.yul\":4978:5109   */\n      tag_237\n        /* \"#utility.yul\":5104:5108   */\n      dup2\n        /* \"#utility.yul\":4978:5109   */\n      tag_165\n      jump\t// in\n    tag_237:\n        /* \"#utility.yul\":4970:5109   */\n      swap1\n      pop\n        /* \"#utility.yul\":4697:5116   */\n      swap2\n      swap1\n      pop\n      jump\t// out\n        /* \"#utility.yul\":5122:5302   */\n    tag_166:\n        /* \"#utility.yul\":5170:5247   */\n      0x4e487b7100000000000000000000000000000000000000000000000000000000\n        /* \"#utility.yul\":5167:5168   */\n      0x00\n        /* \"#utility.yul\":5160:5248   */\n      mstore\n        /* \"#utility.yul\":5267:5271   */\n      0x11\n        /* \"#utility.yul\":5264:5265   */\n      0x04\n        /* \"#utility.yul\":5257:5272   */\n      mstore\n        /* \"#utility.yul\":5291:5295   */\n      0x24\n        /* \"#utility.yul\":5288:5289   */\n      0x00\n        /* \"#utility.yul\":5281:5296   */\n      revert\n        /* \"#utility.yul\":5308:5502   */\n    tag_78:\n        /* \"#utility.yul\":5348:5352   */\n      0x00\n        /* \"#utility.yul\":5368:5388   */\n      tag_240\n        /* \"#utility.yul\":5386:5387   */\n      dup3\n        /* \"#utility.yul\":5368:5388   */\n      tag_147\n      jump\t// in\n    tag_240:\n        /* \"#utility.yul\":5363:5388   */\n      swap2\n      pop\n        /* \"#utility.yul\":5402:5422   */\n      tag_241\n        /* \"#utility.yul\":5420:5421   */\n      dup4\n        /* \"#utility.yul\":5402:5422   */\n      tag_147\n      jump\t// in\n    tag_241:\n        /* \"#utility.yul\":5397:5422   */\n      swap3\n      pop\n        /* \"#utility.yul\":5446:5447   */\n      dup3\n        /* \"#utility.yul\":5443:5444   */\n      dup3\n        /* \"#utility.yul\":5439:5448   */\n      sub\n        /* \"#utility.yul\":5431:5448   */\n      swap1\n      pop\n        /* \"#utility.yul\":5470:5471   */\n      dup2\n        /* \"#utility.yul\":5464:5468   */\n      dup2\n        /* \"#utility.yul\":5461:5472   */\n      gt\n        /* \"#utility.yul\":5458:5495   */\n      iszero\n      tag_242\n      jumpi\n        /* \"#utility.yul\":5475:5493   */\n      tag_243\n      tag_166\n      jump\t// in\n    tag_243:\n        /* \"#utility.yul\":5458:5495   */\n    tag_242:\n        /* \"#utility.yul\":5308:5502   */\n      swap3\n      swap2\n      pop\n      pop\n      jump\t// out\n        /* \"#utility.yul\":5508:5729   */\n    tag_167:\n        /* \"#utility.yul\":5648:5682   */\n      0x4f6e6c792061646d696e2063616e20706572666f726d20746869732061637469\n        /* \"#utility.yul\":5644:5645   */\n      0x00\n        /* \"#utility.yul\":5636:5642   */\n      dup3\n        /* \"#utility.yul\":5632:5646   */\n      add\n        /* \"#utility.yul\":5625:5683   */\n      mstore\n        /* \"#utility.yul\":5717:5721   */\n      0x6f6e000000000000000000000000000000000000000000000000000000000000\n        /* \"#utility.yul\":5712:5714   */\n      0x20\n        /* \"#utility.yul\":5704:5710   */\n      dup3\n        /* \"#utility.yul\":5700:5715   */\n      add\n        /* \"#utility.yul\":5693:5722   */\n      mstore\n        /* \"#utility.yul\":5508:5729   */\n      pop\n      jump\t// out\n        /* \"#utility.yul\":5735:6101   */\n    tag_168:\n        /* \"#utility.yul\":5877:5880   */\n      0x00\n        /* \"#utility.yul\":5898:5965   */\n      tag_246\n        /* \"#utility.yul\":5962:5964   */\n      0x22\n        /* \"#utility.yul\":5957:5960   */\n      dup4\n        /* \"#utility.yul\":5898:5965   */\n      tag_161\n      jump\t// in\n    tag_246:\n        /* \"#utility.yul\":5891:5965   */\n      swap2\n      pop\n        /* \"#utility.yul\":5974:6067   */\n      tag_247\n        /* \"#utility.yul\":6063:6066   */\n      dup3\n        /* \"#utility.yul\":5974:6067   */\n      tag_167\n      jump\t// in\n    tag_247:\n        /* \"#utility.yul\":6092:6094   */\n      0x40\n        /* \"#utility.yul\":6087:6090   */\n      dup3\n        /* \"#utility.yul\":6083:6095   */\n      add\n        /* \"#utility.yul\":6076:6095   */\n      swap1\n      pop\n        /* \"#utility.yul\":5735:6101   */\n      swap2\n      swap1\n      pop\n      jump\t// out\n        /* \"#utility.yul\":6107:6526   */\n    tag_85:\n        /* \"#utility.yul\":6273:6277   */\n      0x00\n        /* \"#utility.yul\":6311:6313   */\n      0x20\n        /* \"#utility.yul\":6300:6309   */\n      dup3\n        /* \"#utility.yul\":6296:6314   */\n      add\n        /* \"#utility.yul\":6288:6314   */\n      swap1\n      pop\n        /* \"#utility.yul\":6360:6369   */\n      dup2\n        /* \"#utility.yul\":6354:6358   */\n      dup2\n        /* \"#utility.yul\":6350:6370   */\n      sub\n        /* \"#utility.yul\":6346:6347   */\n      0x00\n        /* \"#utility.yul\":6335:6344   */\n      dup4\n        /* \"#utility.yul\":6331:6348   */\n      add\n        /* \"#utility.yul\":6324:6371   */\n      mstore\n        /* \"#utility.yul\":6388:6519   */\n      tag_249\n        /* \"#utility.yul\":6514:6518   */\n      dup2\n        /* \"#utility.yul\":6388:6519   */\n      tag_168\n      jump\t// in\n    tag_249:\n        /* \"#utility.yul\":6380:6519   */\n      swap1\n      pop\n        /* \"#utility.yul\":6107:6526   */\n      swap2\n      swap1\n      pop\n      jump\t// out\n        /* \"#utility.yul\":6532:6705   */\n    tag_169:\n        /* \"#utility.yul\":6672:6697   */\n      0x437573746f6d657220616c726561647920657869737473000000000000000000\n        /* \"#utility.yul\":6668:6669   */\n      0x00\n        /* \"#utility.yul\":6660:6666   */\n      dup3\n        /* \"#utility.yul\":6656:6670   */\n      add\n        /* \"#utility.yul\":6649:6698   */\n      mstore\n        /* \"#utility.yul\":6532:6705   */\n      pop\n      jump\t// out\n        /* \"#utility.yul\":6711:7077   */\n    tag_170:\n        /* \"#utility.yul\":6853:6856   */\n      0x00\n        /* \"#utility.yul\":6874:6941   */\n      tag_252\n        /* \"#utility.yul\":6938:6940   */\n      0x17\n        /* \"#utility.yul\":6933:6936   */\n      dup4\n        /* \"#utility.yul\":6874:6941   */\n      tag_161\n      jump\t// in\n    tag_252:\n        /* \"#utility.yul\":6867:6941   */\n      swap2\n      pop\n        /* \"#utility.yul\":6950:7043   */\n      tag_253\n        /* \"#utility.yul\":7039:7042   */\n      dup3\n        /* \"#utility.yul\":6950:7043   */\n      tag_169\n      jump\t// in\n    tag_253:\n        /* \"#utility.yul\":7068:7070   */\n      0x20\n        /* \"#utility.yul\":7063:7066   */\n      dup3\n        /* \"#utility.yul\":7059:7071   */\n      add\n        /* \"#utility.yul\":7052:7071   */\n      swap1\n      pop\n        /* \"#utility.yul\":6711:7077   */\n      swap2\n      swap1\n      pop\n      jump\t// out\n        /* \"#utility.yul\":7083:7502   */\n    tag_89:\n        /* \"#utility.yul\":7249:7253   */\n      0x00\n        /* \"#utility.yul\":7287:7289   */\n      0x20\n        /* \"#utility.yul\":7276:7285   */\n      dup3\n        /* \"#utility.yul\":7272:7290   */\n      add\n        /* \"#utility.yul\":7264:7290   */\n      swap1\n      pop\n        /* \"#utility.yul\":7336:7345   */\n      dup2\n        /* \"#utility.yul\":7330:7334   */\n      dup2\n        /* \"#utility.yul\":7326:7346   */\n      sub\n        /* \"#utility.yul\":7322:7323   */\n      0x00\n        /* \"#utility.yul\":7311:7320   */\n      dup4\n        /* \"#utility.yul\":7307:7324   */\n      add\n        /* \"#utility.yul\":7300:7347   */\n      mstore\n        /* \"#utility.yul\":7364:7495   */\n      tag_255\n        /* \"#utility.yul\":7490:7494   */\n      dup2\n        /* \"#utility.yul\":7364:7495   */\n      tag_170\n      jump\t// in\n    tag_255:\n        /* \"#utility.yul\":7356:7495   */\n      swap1\n      pop\n        /* \"#utility.yul\":7083:7502   */\n      swap2\n      swap1\n      pop\n      jump\t// out\n        /* \"#utility.yul\":7508:7686   */\n    tag_171:\n        /* \"#utility.yul\":7648:7678   */\n      0x4578697374696e67206c6f616e206e6f74207965742072657061696400000000\n        /* \"#utility.yul\":7644:7645   */\n      0x00\n        /* \"#utility.yul\":7636:7642   */\n      dup3\n        /* \"#utility.yul\":7632:7646   */\n      add\n        /* \"#utility.yul\":7625:7679   */\n      mstore\n        /* \"#utility.yul\":7508:7686   */\n      pop\n      jump\t// out\n        /* \"#utility.yul\":7692:8058   */\n    tag_172:\n        /* \"#utility.yul\":7834:7837   */\n      0x00\n        /* \"#utility.yul\":7855:7922   */\n      tag_258\n        /* \"#utility.yul\":7919:7921   */\n      0x1c\n        /* \"#utility.yul\":7914:7917   */\n      dup4\n        /* \"#utility.yul\":7855:7922   */\n      tag_161\n      jump\t// in\n    tag_258:\n        /* \"#utility.yul\":7848:7922   */\n      swap2\n      pop\n        /* \"#utility.yul\":7931:8024   */\n      tag_259\n        /* \"#utility.yul\":8020:8023   */\n      dup3\n        /* \"#utility.yul\":7931:8024   */\n      tag_171\n      jump\t// in\n    tag_259:\n        /* \"#utility.yul\":8049:8051   */\n      0x20\n        /* \"#utility.yul\":8044:8047   */\n      dup3\n        /* \"#utility.yul\":8040:8052   */\n      add\n        /* \"#utility.yul\":8033:8052   */\n      swap1\n      pop\n        /* \"#utility.yul\":7692:8058   */\n      swap2\n      swap1\n      pop\n      jump\t// out\n        /* \"#utility.yul\":8064:8483   */\n    tag_97:\n        /* \"#utility.yul\":8230:8234   */\n      0x00\n        /* \"#utility.yul\":8268:8270   */\n      0x20\n        /* \"#utility.yul\":8257:8266   */\n      dup3\n        /* \"#utility.yul\":8253:8271   */\n      add\n        /* \"#utility.yul\":8245:8271   */\n      swap1\n      pop\n        /* \"#utility.yul\":8317:8326   */\n      dup2\n        /* \"#utility.yul\":8311:8315   */\n      dup2\n        /* \"#utility.yul\":8307:8327   */\n      sub\n        /* \"#utility.yul\":8303:8304   */\n      0x00\n        /* \"#utility.yul\":8292:8301   */\n      dup4\n        /* \"#utility.yul\":8288:8305   */\n      add\n        /* \"#utility.yul\":8281:8328   */\n      mstore\n        /* \"#utility.yul\":8345:8476   */\n      tag_261\n        /* \"#utility.yul\":8471:8475   */\n      dup2\n        /* \"#utility.yul\":8345:8476   */\n      tag_172\n      jump\t// in\n    tag_261:\n        /* \"#utility.yul\":8337:8476   */\n      swap1\n      pop\n        /* \"#utility.yul\":8064:8483   */\n      swap2\n      swap1\n      pop\n      jump\t// out\n        /* \"#utility.yul\":8489:8710   */\n    tag_173:\n        /* \"#utility.yul\":8629:8663   */\n      0x4c6f616e20616d6f756e74206d7573742062652067726561746572207468616e\n        /* \"#utility.yul\":8625:8626   */\n      0x00\n        /* \"#utility.yul\":8617:8623   */\n      dup3\n        /* \"#utility.yul\":8613:8627   */\n      add\n        /* \"#utility.yul\":8606:8664   */\n      mstore\n        /* \"#utility.yul\":8698:8702   */\n      0x2030000000000000000000000000000000000000000000000000000000000000\n        /* \"#utility.yul\":8693:8695   */\n      0x20\n        /* \"#utility.yul\":8685:8691   */\n      dup3\n        /* \"#utility.yul\":8681:8696   */\n      add\n        /* \"#utility.yul\":8674:8703   */\n      mstore\n        /* \"#utility.yul\":8489:8710   */\n      pop\n      jump\t// out\n        /* \"#utility.yul\":8716:9082   */\n    tag_174:\n        /* \"#utility.yul\":8858:8861   */\n      0x00\n        /* \"#utility.yul\":8879:8946   */\n      tag_264\n        /* \"#utility.yul\":8943:8945   */\n      0x22\n        /* \"#utility.yul\":8938:8941   */\n      dup4\n        /* \"#utility.yul\":8879:8946   */\n      tag_161\n      jump\t// in\n    tag_264:\n        /* \"#utility.yul\":8872:8946   */\n      swap2\n      pop\n        /* \"#utility.yul\":8955:9048   */\n      tag_265\n        /* \"#utility.yul\":9044:9047   */\n      dup3\n        /* \"#utility.yul\":8955:9048   */\n      tag_173\n      jump\t// in\n    tag_265:\n        /* \"#utility.yul\":9073:9075   */\n      0x40\n        /* \"#utility.yul\":9068:9071   */\n      dup3\n        /* \"#utility.yul\":9064:9076   */\n      add\n        /* \"#utility.yul\":9057:9076   */\n      swap1\n      pop\n        /* \"#utility.yul\":8716:9082   */\n      swap2\n      swap1\n      pop\n      jump\t// out\n        /* \"#utility.yul\":9088:9507   */\n    tag_100:\n        /* \"#utility.yul\":9254:9258   */\n      0x00\n        /* \"#utility.yul\":9292:9294   */\n      0x20\n        /* \"#utility.yul\":9281:9290   */\n      dup3\n        /* \"#utility.yul\":9277:9295   */\n      add\n        /* \"#utility.yul\":9269:9295   */\n      swap1\n      pop\n        /* \"#utility.yul\":9341:9350   */\n      dup2\n        /* \"#utility.yul\":9335:9339   */\n      dup2\n        /* \"#utility.yul\":9331:9351   */\n      sub\n        /* \"#utility.yul\":9327:9328   */\n      0x00\n        /* \"#utility.yul\":9316:9325   */\n      dup4\n        /* \"#utility.yul\":9312:9329   */\n      add\n        /* \"#utility.yul\":9305:9352   */\n      mstore\n        /* \"#utility.yul\":9369:9500   */\n      tag_267\n        /* \"#utility.yul\":9495:9499   */\n      dup2\n        /* \"#utility.yul\":9369:9500   */\n      tag_174\n      jump\t// in\n    tag_267:\n        /* \"#utility.yul\":9361:9500   */\n      swap1\n      pop\n        /* \"#utility.yul\":9088:9507   */\n      swap2\n      swap1\n      pop\n      jump\t// out\n        /* \"#utility.yul\":9513:9923   */\n    tag_102:\n        /* \"#utility.yul\":9553:9560   */\n      0x00\n        /* \"#utility.yul\":9576:9596   */\n      tag_269\n        /* \"#utility.yul\":9594:9595   */\n      dup3\n        /* \"#utility.yul\":9576:9596   */\n      tag_147\n      jump\t// in\n    tag_269:\n        /* \"#utility.yul\":9571:9596   */\n      swap2\n      pop\n        /* \"#utility.yul\":9610:9630   */\n      tag_270\n        /* \"#utility.yul\":9628:9629   */\n      dup4\n        /* \"#utility.yul\":9610:9630   */\n      tag_147\n      jump\t// in\n    tag_270:\n        /* \"#utility.yul\":9605:9630   */\n      swap3\n      pop\n        /* \"#utility.yul\":9665:9666   */\n      dup3\n        /* \"#utility.yul\":9662:9663   */\n      dup3\n        /* \"#utility.yul\":9658:9667   */\n      mul\n        /* \"#utility.yul\":9687:9717   */\n      tag_271\n        /* \"#utility.yul\":9705:9716   */\n      dup2\n        /* \"#utility.yul\":9687:9717   */\n      tag_147\n      jump\t// in\n    tag_271:\n        /* \"#utility.yul\":9676:9717   */\n      swap2\n      pop\n        /* \"#utility.yul\":9866:9867   */\n      dup3\n        /* \"#utility.yul\":9857:9864   */\n      dup3\n        /* \"#utility.yul\":9853:9868   */\n      div\n        /* \"#utility.yul\":9850:9851   */\n      dup5\n        /* \"#utility.yul\":9847:9869   */\n      eq\n        /* \"#utility.yul\":9827:9828   */\n      dup4\n        /* \"#utility.yul\":9820:9829   */\n      iszero\n        /* \"#utility.yul\":9800:9883   */\n      or\n        /* \"#utility.yul\":9777:9916   */\n      tag_272\n      jumpi\n        /* \"#utility.yul\":9896:9914   */\n      tag_273\n      tag_166\n      jump\t// in\n    tag_273:\n        /* \"#utility.yul\":9777:9916   */\n    tag_272:\n        /* \"#utility.yul\":9561:9923   */\n      pop\n        /* \"#utility.yul\":9513:9923   */\n      swap3\n      swap2\n      pop\n      pop\n      jump\t// out\n        /* \"#utility.yul\":9929:10154   */\n    tag_175:\n        /* \"#utility.yul\":10069:10103   */\n      0x4c6f616e20616d6f756e74206578636565647320646f75626c65207468652062\n        /* \"#utility.yul\":10065:10066   */\n      0x00\n        /* \"#utility.yul\":10057:10063   */\n      dup3\n        /* \"#utility.yul\":10053:10067   */\n      add\n        /* \"#utility.yul\":10046:10104   */\n      mstore\n        /* \"#utility.yul\":10138:10146   */\n      0x616c616e63650000000000000000000000000000000000000000000000000000\n        /* \"#utility.yul\":10133:10135   */\n      0x20\n        /* \"#utility.yul\":10125:10131   */\n      dup3\n        /* \"#utility.yul\":10121:10136   */\n      add\n        /* \"#utility.yul\":10114:10147   */\n      mstore\n        /* \"#utility.yul\":9929:10154   */\n      pop\n      jump\t// out\n        /* \"#utility.yul\":10160:10526   */\n    tag_176:\n        /* \"#utility.yul\":10302:10305   */\n      0x00\n        /* \"#utility.yul\":10323:10390   */\n      tag_276\n        /* \"#utility.yul\":10387:10389   */\n      0x26\n        /* \"#utility.yul\":10382:10385   */\n      dup4\n        /* \"#utility.yul\":10323:10390   */\n      tag_161\n      jump\t// in\n    tag_276:\n        /* \"#utility.yul\":10316:10390   */\n      swap2\n      pop\n        /* \"#utility.yul\":10399:10492   */\n      tag_277\n        /* \"#utility.yul\":10488:10491   */\n      dup3\n        /* \"#utility.yul\":10399:10492   */\n      tag_175\n      jump\t// in\n    tag_277:\n        /* \"#utility.yul\":10517:10519   */\n      0x40\n        /* \"#utility.yul\":10512:10515   */\n      dup3\n        /* \"#utility.yul\":10508:10520   */\n      add\n        /* \"#utility.yul\":10501:10520   */\n      swap1\n      pop\n        /* \"#utility.yul\":10160:10526   */\n      swap2\n      swap1\n      pop\n      jump\t// out\n        /* \"#utility.yul\":10532:10951   */\n    tag_105:\n        /* \"#utility.yul\":10698:10702   */\n      0x00\n        /* \"#utility.yul\":10736:10738   */\n      0x20\n        /* \"#utility.yul\":10725:10734   */\n      dup3\n        /* \"#utility.yul\":10721:10739   */\n      add\n        /* \"#utility.yul\":10713:10739   */\n      swap1\n      pop\n        /* \"#utility.yul\":10785:10794   */\n      dup2\n        /* \"#utility.yul\":10779:10783   */\n      dup2\n        /* \"#utility.yul\":10775:10795   */\n      sub\n        /* \"#utility.yul\":10771:10772   */\n      0x00\n        /* \"#utility.yul\":10760:10769   */\n      dup4\n        /* \"#utility.yul\":10756:10773   */\n      add\n        /* \"#utility.yul\":10749:10796   */\n      mstore\n        /* \"#utility.yul\":10813:10944   */\n      tag_279\n        /* \"#utility.yul\":10939:10943   */\n      dup2\n        /* \"#utility.yul\":10813:10944   */\n      tag_176\n      jump\t// in\n    tag_279:\n        /* \"#utility.yul\":10805:10944   */\n      swap1\n      pop\n        /* \"#utility.yul\":10532:10951   */\n      swap2\n      swap1\n      pop\n      jump\t// out\n        /* \"#utility.yul\":10957:11148   */\n    tag_107:\n        /* \"#utility.yul\":10997:11000   */\n      0x00\n        /* \"#utility.yul\":11016:11036   */\n      tag_281\n        /* \"#utility.yul\":11034:11035   */\n      dup3\n        /* \"#utility.yul\":11016:11036   */\n      tag_147\n      jump\t// in\n    tag_281:\n        /* \"#utility.yul\":11011:11036   */\n      swap2\n      pop\n        /* \"#utility.yul\":11050:11070   */\n      tag_282\n        /* \"#utility.yul\":11068:11069   */\n      dup4\n        /* \"#utility.yul\":11050:11070   */\n      tag_147\n      jump\t// in\n    tag_282:\n        /* \"#utility.yul\":11045:11070   */\n      swap3\n      pop\n        /* \"#utility.yul\":11093:11094   */\n      dup3\n        /* \"#utility.yul\":11090:11091   */\n      dup3\n        /* \"#utility.yul\":11086:11095   */\n      add\n        /* \"#utility.yul\":11079:11095   */\n      swap1\n      pop\n        /* \"#utility.yul\":11114:11117   */\n      dup1\n        /* \"#utility.yul\":11111:11112   */\n      dup3\n        /* \"#utility.yul\":11108:11118   */\n      gt\n        /* \"#utility.yul\":11105:11141   */\n      iszero\n      tag_283\n      jumpi\n        /* \"#utility.yul\":11121:11139   */\n      tag_284\n      tag_166\n      jump\t// in\n    tag_284:\n        /* \"#utility.yul\":11105:11141   */\n    tag_283:\n        /* \"#utility.yul\":10957:11148   */\n      swap3\n      swap2\n      pop\n      pop\n      jump\t// out\n        /* \"#utility.yul\":11154:11329   */\n    tag_177:\n        /* \"#utility.yul\":11294:11321   */\n      0x4e6f206578697374696e67206c6f616e20746f20726570617900000000000000\n        /* \"#utility.yul\":11290:11291   */\n      0x00\n        /* \"#utility.yul\":11282:11288   */\n      dup3\n        /* \"#utility.yul\":11278:11292   */\n      add\n        /* \"#utility.yul\":11271:11322   */\n      mstore\n        /* \"#utility.yul\":11154:11329   */\n      pop\n      jump\t// out\n        /* \"#utility.yul\":11335:11701   */\n    tag_178:\n        /* \"#utility.yul\":11477:11480   */\n      0x00\n        /* \"#utility.yul\":11498:11565   */\n      tag_287\n        /* \"#utility.yul\":11562:11564   */\n      0x19\n        /* \"#utility.yul\":11557:11560   */\n      dup4\n        /* \"#utility.yul\":11498:11565   */\n      tag_161\n      jump\t// in\n    tag_287:\n        /* \"#utility.yul\":11491:11565   */\n      swap2\n      pop\n        /* \"#utility.yul\":11574:11667   */\n      tag_288\n        /* \"#utility.yul\":11663:11666   */\n      dup3\n        /* \"#utility.yul\":11574:11667   */\n      tag_177\n      jump\t// in\n    tag_288:\n        /* \"#utility.yul\":11692:11694   */\n      0x20\n        /* \"#utility.yul\":11687:11690   */\n      dup3\n        /* \"#utility.yul\":11683:11695   */\n      add\n        /* \"#utility.yul\":11676:11695   */\n      swap1\n      pop\n        /* \"#utility.yul\":11335:11701   */\n      swap2\n      swap1\n      pop\n      jump\t// out\n        /* \"#utility.yul\":11707:12126   */\n    tag_119:\n        /* \"#utility.yul\":11873:11877   */\n      0x00\n        /* \"#utility.yul\":11911:11913   */\n      0x20\n        /* \"#utility.yul\":11900:11909   */\n      dup3\n        /* \"#utility.yul\":11896:11914   */\n      add\n        /* \"#utility.yul\":11888:11914   */\n      swap1\n      pop\n        /* \"#utility.yul\":11960:11969   */\n      dup2\n        /* \"#utility.yul\":11954:11958   */\n      dup2\n        /* \"#utility.yul\":11950:11970   */\n      sub\n        /* \"#utility.yul\":11946:11947   */\n      0x00\n        /* \"#utility.yul\":11935:11944   */\n      dup4\n        /* \"#utility.yul\":11931:11948   */\n      add\n        /* \"#utility.yul\":11924:11971   */\n      mstore\n        /* \"#utility.yul\":11988:12119   */\n      tag_290\n        /* \"#utility.yul\":12114:12118   */\n      dup2\n        /* \"#utility.yul\":11988:12119   */\n      tag_178\n      jump\t// in\n    tag_290:\n        /* \"#utility.yul\":11980:12119   */\n      swap1\n      pop\n        /* \"#utility.yul\":11707:12126   */\n      swap2\n      swap1\n      pop\n      jump\t// out\n        /* \"#utility.yul\":12132:12358   */\n    tag_179:\n        /* \"#utility.yul\":12272:12306   */\n      0x52657061796d656e7420616d6f756e74206d7573742062652067726561746572\n        /* \"#utility.yul\":12268:12269   */\n      0x00\n        /* \"#utility.yul\":12260:12266   */\n      dup3\n        /* \"#utility.yul\":12256:12270   */\n      add\n        /* \"#utility.yul\":12249:12307   */\n      mstore\n        /* \"#utility.yul\":12341:12350   */\n      0x207468616e203000000000000000000000000000000000000000000000000000\n        /* \"#utility.yul\":12336:12338   */\n      0x20\n        /* \"#utility.yul\":12328:12334   */\n      dup3\n        /* \"#utility.yul\":12324:12339   */\n      add\n        /* \"#utility.yul\":12317:12351   */\n      mstore\n        /* \"#utility.yul\":12132:12358   */\n      pop\n      jump\t// out\n        /* \"#utility.yul\":12364:12730   */\n    tag_180:\n        /* \"#utility.yul\":12506:12509   */\n      0x00\n        /* \"#utility.yul\":12527:12594   */\n      tag_293\n        /* \"#utility.yul\":12591:12593   */\n      0x27\n        /* \"#utility.yul\":12586:12589   */\n      dup4\n        /* \"#utility.yul\":12527:12594   */\n      tag_161\n      jump\t// in\n    tag_293:\n        /* \"#utility.yul\":12520:12594   */\n      swap2\n      pop\n        /* \"#utility.yul\":12603:12696   */\n      tag_294\n        /* \"#utility.yul\":12692:12695   */\n      dup3\n        /* \"#utility.yul\":12603:12696   */\n      tag_179\n      jump\t// in\n    tag_294:\n        /* \"#utility.yul\":12721:12723   */\n      0x40\n        /* \"#utility.yul\":12716:12719   */\n      dup3\n        /* \"#utility.yul\":12712:12724   */\n      add\n        /* \"#utility.yul\":12705:12724   */\n      swap1\n      pop\n        /* \"#utility.yul\":12364:12730   */\n      swap2\n      swap1\n      pop\n      jump\t// out\n        /* \"#utility.yul\":12736:13155   */\n    tag_122:\n        /* \"#utility.yul\":12902:12906   */\n      0x00\n        /* \"#utility.yul\":12940:12942   */\n      0x20\n        /* \"#utility.yul\":12929:12938   */\n      dup3\n        /* \"#utility.yul\":12925:12943   */\n      add\n        /* \"#utility.yul\":12917:12943   */\n      swap1\n      pop\n        /* \"#utility.yul\":12989:12998   */\n      dup2\n        /* \"#utility.yul\":12983:12987   */\n      dup2\n        /* \"#utility.yul\":12979:12999   */\n      sub\n        /* \"#utility.yul\":12975:12976   */\n      0x00\n        /* \"#utility.yul\":12964:12973   */\n      dup4\n        /* \"#utility.yul\":12960:12977   */\n      add\n        /* \"#utility.yul\":12953:13000   */\n      mstore\n        /* \"#utility.yul\":13017:13148   */\n      tag_296\n        /* \"#utility.yul\":13143:13147   */\n      dup2\n        /* \"#utility.yul\":13017:13148   */\n      tag_180\n      jump\t// in\n    tag_296:\n        /* \"#utility.yul\":13009:13148   */\n      swap1\n      pop\n        /* \"#utility.yul\":12736:13155   */\n      swap2\n      swap1\n      pop\n      jump\t// out\n        /* \"#utility.yul\":13161:13387   */\n    tag_181:\n        /* \"#utility.yul\":13301:13335   */\n      0x496e73756666696369656e742062616c616e636520666f72206c6f616e207265\n        /* \"#utility.yul\":13297:13298   */\n      0x00\n        /* \"#utility.yul\":13289:13295   */\n      dup3\n        /* \"#utility.yul\":13285:13299   */\n      add\n        /* \"#utility.yul\":13278:13336   */\n      mstore\n        /* \"#utility.yul\":13370:13379   */\n      0x7061796d656e7400000000000000000000000000000000000000000000000000\n        /* \"#utility.yul\":13365:13367   */\n      0x20\n        /* \"#utility.yul\":13357:13363   */\n      dup3\n        /* \"#utility.yul\":13353:13368   */\n      add\n        /* \"#utility.yul\":13346:13380   */\n      mstore\n        /* \"#utility.yul\":13161:13387   */\n      pop\n      jump\t// out\n        /* \"#utility.yul\":13393:13759   */\n    tag_182:\n        /* \"#utility.yul\":13535:13538   */\n      0x00\n        /* \"#utility.yul\":13556:13623   */\n      tag_299\n        /* \"#utility.yul\":13620:13622   */\n      0x27\n        /* \"#utility.yul\":13615:13618   */\n      dup4\n        /* \"#utility.yul\":13556:13623   */\n      tag_161\n      jump\t// in\n    tag_299:\n        /* \"#utility.yul\":13549:13623   */\n      swap2\n      pop\n        /* \"#utility.yul\":13632:13725   */\n      tag_300\n        /* \"#utility.yul\":13721:13724   */\n      dup3\n        /* \"#utility.yul\":13632:13725   */\n      tag_181\n      jump\t// in\n    tag_300:\n        /* \"#utility.yul\":13750:13752   */\n      0x40\n        /* \"#utility.yul\":13745:13748   */\n      dup3\n        /* \"#utility.yul\":13741:13753   */\n      add\n        /* \"#utility.yul\":13734:13753   */\n      swap1\n      pop\n        /* \"#utility.yul\":13393:13759   */\n      swap2\n      swap1\n      pop\n      jump\t// out\n        /* \"#utility.yul\":13765:14184   */\n    tag_125:\n        /* \"#utility.yul\":13931:13935   */\n      0x00\n        /* \"#utility.yul\":13969:13971   */\n      0x20\n        /* \"#utility.yul\":13958:13967   */\n      dup3\n        /* \"#utility.yul\":13954:13972   */\n      add\n        /* \"#utility.yul\":13946:13972   */\n      swap1\n      pop\n        /* \"#utility.yul\":14018:14027   */\n      dup2\n        /* \"#utility.yul\":14012:14016   */\n      dup2\n        /* \"#utility.yul\":14008:14028   */\n      sub\n        /* \"#utility.yul\":14004:14005   */\n      0x00\n        /* \"#utility.yul\":13993:14002   */\n      dup4\n        /* \"#utility.yul\":13989:14006   */\n      add\n        /* \"#utility.yul\":13982:14029   */\n      mstore\n        /* \"#utility.yul\":14046:14177   */\n      tag_302\n        /* \"#utility.yul\":14172:14176   */\n      dup2\n        /* \"#utility.yul\":14046:14177   */\n      tag_182\n      jump\t// in\n    tag_302:\n        /* \"#utility.yul\":14038:14177   */\n      swap1\n      pop\n        /* \"#utility.yul\":13765:14184   */\n      swap2\n      swap1\n      pop\n      jump\t// out\n        /* \"#utility.yul\":14190:14370   */\n    tag_183:\n        /* \"#utility.yul\":14238:14315   */\n      0x4e487b7100000000000000000000000000000000000000000000000000000000\n        /* \"#utility.yul\":14235:14236   */\n      0x00\n        /* \"#utility.yul\":14228:14316   */\n      mstore\n        /* \"#utility.yul\":14335:14339   */\n      0x12\n        /* \"#utility.yul\":14332:14333   */\n      0x04\n        /* \"#utility.yul\":14325:14340   */\n      mstore\n        /* \"#utility.yul\":14359:14363   */\n      0x24\n        /* \"#utility.yul\":14356:14357   */\n      0x00\n        /* \"#utility.yul\":14349:14364   */\n      revert\n        /* \"#utility.yul\":14376:14561   */\n    tag_129:\n        /* \"#utility.yul\":14416:14417   */\n      0x00\n        /* \"#utility.yul\":14433:14453   */\n      tag_305\n        /* \"#utility.yul\":14451:14452   */\n      dup3\n        /* \"#utility.yul\":14433:14453   */\n      tag_147\n      jump\t// in\n    tag_305:\n        /* \"#utility.yul\":14428:14453   */\n      swap2\n      pop\n        /* \"#utility.yul\":14467:14487   */\n      tag_306\n        /* \"#utility.yul\":14485:14486   */\n      dup4\n        /* \"#utility.yul\":14467:14487   */\n      tag_147\n      jump\t// in\n    tag_306:\n        /* \"#utility.yul\":14462:14487   */\n      swap3\n      pop\n        /* \"#utility.yul\":14506:14507   */\n      dup3\n        /* \"#utility.yul\":14496:14531   */\n      tag_307\n      jumpi\n        /* \"#utility.yul\":14511:14529   */\n      tag_308\n      tag_183\n      jump\t// in\n    tag_308:\n        /* \"#utility.yul\":14496:14531   */\n    tag_307:\n        /* \"#utility.yul\":14553:14554   */\n      dup3\n        /* \"#utility.yul\":14550:14551   */\n      dup3\n        /* \"#utility.yul\":14546:14555   */\n      div\n        /* \"#utility.yul\":14541:14555   */\n      swap1\n      pop\n        /* \"#utility.yul\":14376:14561   */\n      swap3\n      swap2\n      pop\n      pop\n      jump\t// out\n        /* \"#utility.yul\":14567:14791   */\n    tag_184:\n        /* \"#utility.yul\":14707:14741   */\n      0x4465706f73697420616d6f756e74206d75737420626520677265617465722074\n        /* \"#utility.yul\":14703:14704   */\n      0x00\n        /* \"#utility.yul\":14695:14701   */\n      dup3\n        /* \"#utility.yul\":14691:14705   */\n      add\n        /* \"#utility.yul\":14684:14742   */\n      mstore\n        /* \"#utility.yul\":14776:14783   */\n      0x68616e2030000000000000000000000000000000000000000000000000000000\n        /* \"#utility.yul\":14771:14773   */\n      0x20\n        /* \"#utility.yul\":14763:14769   */\n      dup3\n        /* \"#utility.yul\":14759:14774   */\n      add\n        /* \"#utility.yul\":14752:14784   */\n      mstore\n        /* \"#utility.yul\":14567:14791   */\n      pop\n      jump\t// out\n        /* \"#utility.yul\":14797:15163   */\n    tag_185:\n        /* \"#utility.yul\":14939:14942   */\n      0x00\n        /* \"#utility.yul\":14960:15027   */\n      tag_311\n        /* \"#utility.yul\":15024:15026   */\n      0x25\n        /* \"#utility.yul\":15019:15022   */\n      dup4\n        /* \"#utility.yul\":14960:15027   */\n      tag_161\n      jump\t// in\n    tag_311:\n        /* \"#utility.yul\":14953:15027   */\n      swap2\n      pop\n        /* \"#utility.yul\":15036:15129   */\n      tag_312\n        /* \"#utility.yul\":15125:15128   */\n      dup3\n        /* \"#utility.yul\":15036:15129   */\n      tag_184\n      jump\t// in\n    tag_312:\n        /* \"#utility.yul\":15154:15156   */\n      0x40\n        /* \"#utility.yul\":15149:15152   */\n      dup3\n        /* \"#utility.yul\":15145:15157   */\n      add\n        /* \"#utility.yul\":15138:15157   */\n      swap1\n      pop\n        /* \"#utility.yul\":14797:15163   */\n      swap2\n      swap1\n      pop\n      jump\t// out\n        /* \"#utility.yul\":15169:15588   */\n    tag_144:\n        /* \"#utility.yul\":15335:15339   */\n      0x00\n        /* \"#utility.yul\":15373:15375   */\n      0x20\n        /* \"#utility.yul\":15362:15371   */\n      dup3\n        /* \"#utility.yul\":15358:15376   */\n      add\n        /* \"#utility.yul\":15350:15376   */\n      swap1\n      pop\n        /* \"#utility.yul\":15422:15431   */\n      dup2\n        /* \"#utility.yul\":15416:15420   */\n      dup2\n        /* \"#utility.yul\":15412:15432   */\n      sub\n        /* \"#utility.yul\":15408:15409   */\n      0x00\n        /* \"#utility.yul\":15397:15406   */\n      dup4\n        /* \"#utility.yul\":15393:15410   */\n      add\n        /* \"#utility.yul\":15386:15433   */\n      mstore\n        /* \"#utility.yul\":15450:15581   */\n      tag_314\n        /* \"#utility.yul\":15576:15580   */\n      dup2\n        /* \"#utility.yul\":15450:15581   */\n      tag_185\n      jump\t// in\n    tag_314:\n        /* \"#utility.yul\":15442:15581   */\n      swap1\n      pop\n        /* \"#utility.yul\":15169:15588   */\n      swap2\n      swap1\n      pop\n      jump\t// out\n\n    auxdata: 0xa264697066735822122021cd90879cefae2e709c03d3ccdce2fe12615412cc76380b3c34d15f0fa92c3064736f6c63430008190033\n}\n",
				"bytecode": {
					"linkReferences": {},
					"object": "60806040526005600455600a6005553480156018575f80fd5b50335f806101000a81548173ffffffffffffffffffffffffffffffffffffffff021916908373ffffffffffffffffffffffffffffffffffffffff160217905550611815806100655f395ff3fe6080604052600436106100a6575f3560e01c80638f283970116100635780638f283970146101c45780639da8c580146101ec578063ab7b1c8914610228578063c222bcea14610250578063d0e30db01461027a578063f851a44014610284576100a6565b806311d20d20146100aa57806327e235e3146100d457806328fd5e83146101105780632e1a7d4d1461014c5780637520320f146101745780638d5d34291461019c575b5f80fd5b3480156100b5575f80fd5b506100be6102ae565b6040516100cb9190610ff0565b60405180910390f35b3480156100df575f80fd5b506100fa60048036038101906100f59190611067565b6102b4565b6040516101079190610ff0565b60405180910390f35b34801561011b575f80fd5b5061013660048036038101906101319190611067565b6102c9565b60405161014391906110ac565b60405180910390f35b348015610157575f80fd5b50610172600480360381019061016d91906110ef565b6102e6565b005b34801561017f575f80fd5b5061019a60048036038101906101959190611067565b6104d7565b005b3480156101a7575f80fd5b506101c260048036038101906101bd91906110ef565b61067d565b005b3480156101cf575f80fd5b506101ea60048036038101906101e59190611067565b610957565b005b3480156101f7575f80fd5b50610212600480360381019061020d9190611067565b610a26565b60405161021f91906110ac565b60405180910390f35b348015610233575f80fd5b5061024e600480360381019061024991906110ef565b610a43565b005b34801561025b575f80fd5b50610264610e41565b6040516102719190610ff0565b60405180910390f35b610282610e47565b005b34801561028f575f80fd5b50610298610fb5565b6040516102a59190611129565b60405180910390f35b60055481565b6001602052805f5260405f205f915090505481565b6002602052805f5260405f205f915054906101000a900460ff1681565b60025f3373ffffffffffffffffffffffffffffffffffffffff1673ffffffffffffffffffffffffffffffffffffffff1681526020019081526020015f205f9054906101000a900460ff1661036f576040517f08c379a00000000000000000000000000000000000000000000000000000000081526004016103669061119c565b60405180910390fd5b8060015f3373ffffffffffffffffffffffffffffffffffffffff1673ffffffffffffffffffffffffffffffffffffffff1681526020019081526020015f205410156103ef576040517f08c379a00000000000000000000000000000000000000000000000000000000081526004016103e690611204565b60405180910390fd5b8060015f3373ffffffffffffffffffffffffffffffffffffffff1673ffffffffffffffffffffffffffffffffffffffff1681526020019081526020015f205f82825461043b919061124f565b925050819055503373ffffffffffffffffffffffffffffffffffffffff166108fc8290811502906040515f60405180830381858888f19350505050158015610485573d5f803e3d5ffd5b503373ffffffffffffffffffffffffffffffffffffffff167f7fcf532c15f0a6db0bd6d0e038bea71d30d808c7d98cb3bf7268a95bf5081b65826040516104cc9190610ff0565b60405180910390a250565b5f8054906101000a900473ffffffffffffffffffffffffffffffffffffffff1673ffffffffffffffffffffffffffffffffffffffff163373ffffffffffffffffffffffffffffffffffffffff1614610564576040517f08c379a000000000000000000000000000000000000000000000000000000000815260040161055b906112f2565b60405180910390fd5b60025f8273ffffffffffffffffffffffffffffffffffffffff1673ffffffffffffffffffffffffffffffffffffffff1681526020019081526020015f205f9054906101000a900460ff16156105ee576040517f08c379a00000000000000000000000000000000000000000000000000000000081526004016105e59061135a565b60405180910390fd5b600160025f8373ffffffffffffffffffffffffffffffffffffffff1673ffffffffffffffffffffffffffffffffffffffff1681526020019081526020015f205f6101000a81548160ff0219169083151502179055507f38e4f67e693b50563b5b4ff6b4f367f4ccd75b23d50bd74de4db712c22e33899816040516106729190611129565b60405180910390a150565b60025f3373ffffffffffffffffffffffffffffffffffffffff1673ffffffffffffffffffffffffffffffffffffffff1681526020019081526020015f205f9054906101000a900460ff16610706576040517f08c379a00000000000000000000000000000000000000000000000000000000081526004016106fd9061119c565b60405180910390fd5b60035f3373ffffffffffffffffffffffffffffffffffffffff1673ffffffffffffffffffffffffffffffffffffffff1681526020019081526020015f205f9054906101000a900460ff1615610790576040517f08c379a0000000000000000000000000000000000000000000000000000000008152600401610787906113c2565b60405180910390fd5b5f81116107d2576040517f08c379a00000000000000000000000000000000000000000000000000000000081526004016107c990611450565b60405180910390fd5b600260015f3373ffffffffffffffffffffffffffffffffffffffff1673ffffffffffffffffffffffffffffffffffffffff1681526020019081526020015f205461081c919061146e565b81111561085e576040517f08c379a00000000000000000000000000000000000000000000000000000000081526004016108559061151f565b60405180910390fd5b600160035f3373ffffffffffffffffffffffffffffffffffffffff1673ffffffffffffffffffffffffffffffffffffffff1681526020019081526020015f205f6101000a81548160ff0219169083151502179055508060015f3373ffffffffffffffffffffffffffffffffffffffff1673ffffffffffffffffffffffffffffffffffffffff1681526020019081526020015f205f8282546108ff919061153d565b925050819055503373ffffffffffffffffffffffffffffffffffffffff167f06c22e520074f676b380b03ffba06f2ccf61e51cbeee2a4e084b80a19d2fc2378260405161094c9190610ff0565b60405180910390a250565b5f8054906101000a900473ffffffffffffffffffffffffffffffffffffffff1673ffffffffffffffffffffffffffffffffffffffff163373ffffffffffffffffffffffffffffffffffffffff16146109e4576040517f08c379a00000000000000000000000000000000000000000000000000000000081526004016109db906112f2565b60405180910390fd5b805f806101000a81548173ffffffffffffffffffffffffffffffffffffffff021916908373ffffffffffffffffffffffffffffffffffffffff16021790555050565b6003602052805f5260405f205f915054906101000a900460ff1681565b60025f3373ffffffffffffffffffffffffffffffffffffffff1673ffffffffffffffffffffffffffffffffffffffff1681526020019081526020015f205f9054906101000a900460ff16610acc576040517f08c379a0000000000000000000000000000000000000000000000000000000008152600401610ac39061119c565b60405180910390fd5b60035f3373ffffffffffffffffffffffffffffffffffffffff1673ffffffffffffffffffffffffffffffffffffffff1681526020019081526020015f205f9054906101000a900460ff16610b55576040517f08c379a0000000000000000000000000000000000000000000000000000000008152600401610b4c906115ba565b60405180910390fd5b5f8111610b97576040517f08c379a0000000000000000000000000000000000000000000000000000000008152600401610b8e90611648565b60405180910390fd5b60015f3373ffffffffffffffffffffffffffffffffffffffff1673ffffffffffffffffffffffffffffffffffffffff1681526020019081526020015f2054811115610c17576040517f08c379a0000000000000000000000000000000000000000000000000000000008152600401610c0e906116d6565b60405180910390fd5b8060015f3373ffffffffffffffffffffffffffffffffffffffff1673ffffffffffffffffffffffffffffffffffffffff1681526020019081526020015f205f828254610c63919061124f565b92505081905550606460045460015f3373ffffffffffffffffffffffffffffffffffffffff1673ffffffffffffffffffffffffffffffffffffffff1681526020019081526020015f2054610cb7919061146e565b610cc19190611721565b811015610d9c57606460055482610cd8919061146e565b610ce29190611721565b60015f3373ffffffffffffffffffffffffffffffffffffffff1673ffffffffffffffffffffffffffffffffffffffff1681526020019081526020015f205f828254610d2d919061124f565b925050819055503373ffffffffffffffffffffffffffffffffffffffff167fdcb76cd7e0cd44183c803ac94f856167fa3f383e065054d948a6e655631c3960606460055484610d7c919061146e565b610d869190611721565b604051610d939190610ff0565b60405180910390a25b5f60035f3373ffffffffffffffffffffffffffffffffffffffff1673ffffffffffffffffffffffffffffffffffffffff1681526020019081526020015f205f6101000a81548160ff0219169083151502179055503373ffffffffffffffffffffffffffffffffffffffff167f6f8286e47ace49394f4a28298c2ba2c5df760a3872931a94e60ab7fe82b809cd82604051610e369190610ff0565b60405180910390a250565b60045481565b60025f3373ffffffffffffffffffffffffffffffffffffffff1673ffffffffffffffffffffffffffffffffffffffff1681526020019081526020015f205f9054906101000a900460ff16610ed0576040517f08c379a0000000000000000000000000000000000000000000000000000000008152600401610ec79061119c565b60405180910390fd5b5f3411610f12576040517f08c379a0000000000000000000000000000000000000000000000000000000008152600401610f09906117c1565b60405180910390fd5b3460015f3373ffffffffffffffffffffffffffffffffffffffff1673ffffffffffffffffffffffffffffffffffffffff1681526020019081526020015f205f828254610f5e919061153d565b925050819055503373ffffffffffffffffffffffffffffffffffffffff167fe1fffcc4923d04b559f4d29a8bfc6cda04eb5b0d3c460751c2402c5c5cc9109c34604051610fab9190610ff0565b60405180910390a2565b5f8054906101000a900473ffffffffffffffffffffffffffffffffffffffff1681565b5f819050919050565b610fea81610fd8565b82525050565b5f6020820190506110035f830184610fe1565b92915050565b5f80fd5b5f73ffffffffffffffffffffffffffffffffffffffff82169050919050565b5f6110368261100d565b9050919050565b6110468161102c565b8114611050575f80fd5b50565b5f813590506110618161103d565b92915050565b5f6020828403121561107c5761107b611009565b5b5f61108984828501611053565b91505092915050565b5f8115159050919050565b6110a681611092565b82525050565b5f6020820190506110bf5f83018461109d565b92915050565b6110ce81610fd8565b81146110d8575f80fd5b50565b5f813590506110e9816110c5565b92915050565b5f6020828403121561110457611103611009565b5b5f611111848285016110db565b91505092915050565b6111238161102c565b82525050565b5f60208201905061113c5f83018461111a565b92915050565b5f82825260208201905092915050565b7f437573746f6d657220646f6573206e6f742065786973740000000000000000005f82015250565b5f611186601783611142565b915061119182611152565b602082019050919050565b5f6020820190508181035f8301526111b38161117a565b9050919050565b7f496e73756666696369656e742062616c616e63650000000000000000000000005f82015250565b5f6111ee601483611142565b91506111f9826111ba565b602082019050919050565b5f6020820190508181035f83015261121b816111e2565b9050919050565b7f4e487b71000000000000000000000000000000000000000000000000000000005f52601160045260245ffd5b5f61125982610fd8565b915061126483610fd8565b925082820390508181111561127c5761127b611222565b5b92915050565b7f4f6e6c792061646d696e2063616e20706572666f726d207468697320616374695f8201527f6f6e000000000000000000000000000000000000000000000000000000000000602082015250565b5f6112dc602283611142565b91506112e782611282565b604082019050919050565b5f6020820190508181035f830152611309816112d0565b9050919050565b7f437573746f6d657220616c7265616479206578697374730000000000000000005f82015250565b5f611344601783611142565b915061134f82611310565b602082019050919050565b5f6020820190508181035f83015261137181611338565b9050919050565b7f4578697374696e67206c6f616e206e6f742079657420726570616964000000005f82015250565b5f6113ac601c83611142565b91506113b782611378565b602082019050919050565b5f6020820190508181035f8301526113d9816113a0565b9050919050565b7f4c6f616e20616d6f756e74206d7573742062652067726561746572207468616e5f8201527f2030000000000000000000000000000000000000000000000000000000000000602082015250565b5f61143a602283611142565b9150611445826113e0565b604082019050919050565b5f6020820190508181035f8301526114678161142e565b9050919050565b5f61147882610fd8565b915061148383610fd8565b925082820261149181610fd8565b915082820484148315176114a8576114a7611222565b5b5092915050565b7f4c6f616e20616d6f756e74206578636565647320646f75626c652074686520625f8201527f616c616e63650000000000000000000000000000000000000000000000000000602082015250565b5f611509602683611142565b9150611514826114af565b604082019050919050565b5f6020820190508181035f830152611536816114fd565b9050919050565b5f61154782610fd8565b915061155283610fd8565b925082820190508082111561156a57611569611222565b5b92915050565b7f4e6f206578697374696e67206c6f616e20746f207265706179000000000000005f82015250565b5f6115a4601983611142565b91506115af82611570565b602082019050919050565b5f6020820190508181035f8301526115d181611598565b9050919050565b7f52657061796d656e7420616d6f756e74206d75737420626520677265617465725f8201527f207468616e203000000000000000000000000000000000000000000000000000602082015250565b5f611632602783611142565b915061163d826115d8565b604082019050919050565b5f6020820190508181035f83015261165f81611626565b9050919050565b7f496e73756666696369656e742062616c616e636520666f72206c6f616e2072655f8201527f7061796d656e7400000000000000000000000000000000000000000000000000602082015250565b5f6116c0602783611142565b91506116cb82611666565b604082019050919050565b5f6020820190508181035f8301526116ed816116b4565b9050919050565b7f4e487b71000000000000000000000000000000000000000000000000000000005f52601260045260245ffd5b5f61172b82610fd8565b915061173683610fd8565b925082611746576117456116f4565b5b828204905092915050565b7f4465706f73697420616d6f756e74206d757374206265206772656174657220745f8201527f68616e2030000000000000000000000000000000000000000000000000000000602082015250565b5f6117ab602583611142565b91506117b682611751565b604082019050919050565b5f6020820190508181035f8301526117d88161179f565b905091905056fea264697066735822122021cd90879cefae2e709c03d3ccdce2fe12615412cc76380b3c34d15f0fa92c3064736f6c63430008190033",
					"opcodes": "PUSH1 0x80 PUSH1 0x40 MSTORE PUSH1 0x5 PUSH1 0x4 SSTORE PUSH1 0xA PUSH1 0x5 SSTORE CALLVALUE DUP1 ISZERO PUSH1 0x18 JUMPI PUSH0 DUP1 REVERT JUMPDEST POP CALLER PUSH0 DUP1 PUSH2 0x100 EXP DUP2 SLOAD DUP2 PUSH20 0xFFFFFFFFFFFFFFFFFFFFFFFFFFFFFFFFFFFFFFFF MUL NOT AND SWAP1 DUP4 PUSH20 0xFFFFFFFFFFFFFFFFFFFFFFFFFFFFFFFFFFFFFFFF AND MUL OR SWAP1 SSTORE POP PUSH2 0x1815 DUP1 PUSH2 0x65 PUSH0 CODECOPY PUSH0 RETURN INVALID PUSH1 0x80 PUSH1 0x40 MSTORE PUSH1 0x4 CALLDATASIZE LT PUSH2 0xA6 JUMPI PUSH0 CALLDATALOAD PUSH1 0xE0 SHR DUP1 PUSH4 0x8F283970 GT PUSH2 0x63 JUMPI DUP1 PUSH4 0x8F283970 EQ PUSH2 0x1C4 JUMPI DUP1 PUSH4 0x9DA8C580 EQ PUSH2 0x1EC JUMPI DUP1 PUSH4 0xAB7B1C89 EQ PUSH2 0x228 JUMPI DUP1 PUSH4 0xC222BCEA EQ PUSH2 0x250 JUMPI DUP1 PUSH4 0xD0E30DB0 EQ PUSH2 0x27A JUMPI DUP1 PUSH4 0xF851A440 EQ PUSH2 0x284 JUMPI PUSH2 0xA6 JUMP JUMPDEST DUP1 PUSH4 0x11D20D20 EQ PUSH2 0xAA JUMPI DUP1 PUSH4 0x27E235E3 EQ PUSH2 0xD4 JUMPI DUP1 PUSH4 0x28FD5E83 EQ PUSH2 0x110 JUMPI DUP1 PUSH4 0x2E1A7D4D EQ PUSH2 0x14C JUMPI DUP1 PUSH4 0x7520320F EQ PUSH2 0x174 JUMPI DUP1 PUSH4 0x8D5D3429 EQ PUSH2 0x19C JUMPI JUMPDEST PUSH0 DUP1 REVERT JUMPDEST CALLVALUE DUP1 ISZERO PUSH2 0xB5 JUMPI PUSH0 DUP1 REVERT JUMPDEST POP PUSH2 0xBE PUSH2 0x2AE JUMP JUMPDEST PUSH1 0x40 MLOAD PUSH2 0xCB SWAP2 SWAP1 PUSH2 0xFF0 JUMP JUMPDEST PUSH1 0x40 MLOAD DUP1 SWAP2 SUB SWAP1 RETURN JUMPDEST CALLVALUE DUP1 ISZERO PUSH2 0xDF JUMPI PUSH0 DUP1 REVERT JUMPDEST POP PUSH2 0xFA PUSH1 0x4 DUP1 CALLDATASIZE SUB DUP2 ADD SWAP1 PUSH2 0xF5 SWAP2 SWAP1 PUSH2 0x1067 JUMP JUMPDEST PUSH2 0x2B4 JUMP JUMPDEST PUSH1 0x40 MLOAD PUSH2 0x107 SWAP2 SWAP1 PUSH2 0xFF0 JUMP JUMPDEST PUSH1 0x40 MLOAD DUP1 SWAP2 SUB SWAP1 RETURN JUMPDEST CALLVALUE DUP1 ISZERO PUSH2 0x11B JUMPI PUSH0 DUP1 REVERT JUMPDEST POP PUSH2 0x136 PUSH1 0x4 DUP1 CALLDATASIZE SUB DUP2 ADD SWAP1 PUSH2 0x131 SWAP2 SWAP1 PUSH2 0x1067 JUMP JUMPDEST PUSH2 0x2C9 JUMP JUMPDEST PUSH1 0x40 MLOAD PUSH2 0x143 SWAP2 SWAP1 PUSH2 0x10AC JUMP JUMPDEST PUSH1 0x40 MLOAD DUP1 SWAP2 SUB SWAP1 RETURN JUMPDEST CALLVALUE DUP1 ISZERO PUSH2 0x157 JUMPI PUSH0 DUP1 REVERT JUMPDEST POP PUSH2 0x172 PUSH1 0x4 DUP1 CALLDATASIZE SUB DUP2 ADD SWAP1 PUSH2 0x16D SWAP2 SWAP1 PUSH2 0x10EF JUMP JUMPDEST PUSH2 0x2E6 JUMP JUMPDEST STOP JUMPDEST CALLVALUE DUP1 ISZERO PUSH2 0x17F JUMPI PUSH0 DUP1 REVERT JUMPDEST POP PUSH2 0x19A PUSH1 0x4 DUP1 CALLDATASIZE SUB DUP2 ADD SWAP1 PUSH2 0x195 SWAP2 SWAP1 PUSH2 0x1067 JUMP JUMPDEST PUSH2 0x4D7 JUMP JUMPDEST STOP JUMPDEST CALLVALUE DUP1 ISZERO PUSH2 0x1A7 JUMPI PUSH0 DUP1 REVERT JUMPDEST POP PUSH2 0x1C2 PUSH1 0x4 DUP1 CALLDATASIZE SUB DUP2 ADD SWAP1 PUSH2 0x1BD SWAP2 SWAP1 PUSH2 0x10EF JUMP JUMPDEST PUSH2 0x67D JUMP JUMPDEST STOP JUMPDEST CALLVALUE DUP1 ISZERO PUSH2 0x1CF JUMPI PUSH0 DUP1 REVERT JUMPDEST POP PUSH2 0x1EA PUSH1 0x4 DUP1 CALLDATASIZE SUB DUP2 ADD SWAP1 PUSH2 0x1E5 SWAP2 SWAP1 PUSH2 0x1067 JUMP JUMPDEST PUSH2 0x957 JUMP JUMPDEST STOP JUMPDEST CALLVALUE DUP1 ISZERO PUSH2 0x1F7 JUMPI PUSH0 DUP1 REVERT JUMPDEST POP PUSH2 0x212 PUSH1 0x4 DUP1 CALLDATASIZE SUB DUP2 ADD SWAP1 PUSH2 0x20D SWAP2 SWAP1 PUSH2 0x1067 JUMP JUMPDEST PUSH2 0xA26 JUMP JUMPDEST PUSH1 0x40 MLOAD PUSH2 0x21F SWAP2 SWAP1 PUSH2 0x10AC JUMP JUMPDEST PUSH1 0x40 MLOAD DUP1 SWAP2 SUB SWAP1 RETURN JUMPDEST CALLVALUE DUP1 ISZERO PUSH2 0x233 JUMPI PUSH0 DUP1 REVERT JUMPDEST POP PUSH2 0x24E PUSH1 0x4 DUP1 CALLDATASIZE SUB DUP2 ADD SWAP1 PUSH2 0x249 SWAP2 SWAP1 PUSH2 0x10EF JUMP JUMPDEST PUSH2 0xA43 JUMP JUMPDEST STOP JUMPDEST CALLVALUE DUP1 ISZERO PUSH2 0x25B JUMPI PUSH0 DUP1 REVERT JUMPDEST POP PUSH2 0x264 PUSH2 0xE41 JUMP JUMPDEST PUSH1 0x40 MLOAD PUSH2 0x271 SWAP2 SWAP1 PUSH2 0xFF0 JUMP JUMPDEST PUSH1 0x40 MLOAD DUP1 SWAP2 SUB SWAP1 RETURN JUMPDEST PUSH2 0x282 PUSH2 0xE47 JUMP JUMPDEST STOP JUMPDEST CALLVALUE DUP1 ISZERO PUSH2 0x28F JUMPI PUSH0 DUP1 REVERT JUMPDEST POP PUSH2 0x298 PUSH2 0xFB5 JUMP JUMPDEST PUSH1 0x40 MLOAD PUSH2 0x2A5 SWAP2 SWAP1 PUSH2 0x1129 JUMP JUMPDEST PUSH1 0x40 MLOAD DUP1 SWAP2 SUB SWAP1 RETURN JUMPDEST PUSH1 0x5 SLOAD DUP2 JUMP JUMPDEST PUSH1 0x1 PUSH1 0x20 MSTORE DUP1 PUSH0 MSTORE PUSH1 0x40 PUSH0 KECCAK256 PUSH0 SWAP2 POP SWAP1 POP SLOAD DUP2 JUMP JUMPDEST PUSH1 0x2 PUSH1 0x20 MSTORE DUP1 PUSH0 MSTORE PUSH1 0x40 PUSH0 KECCAK256 PUSH0 SWAP2 POP SLOAD SWAP1 PUSH2 0x100 EXP SWAP1 DIV PUSH1 0xFF AND DUP2 JUMP JUMPDEST PUSH1 0x2 PUSH0 CALLER PUSH20 0xFFFFFFFFFFFFFFFFFFFFFFFFFFFFFFFFFFFFFFFF AND PUSH20 0xFFFFFFFFFFFFFFFFFFFFFFFFFFFFFFFFFFFFFFFF AND DUP2 MSTORE PUSH1 0x20 ADD SWAP1 DUP2 MSTORE PUSH1 0x20 ADD PUSH0 KECCAK256 PUSH0 SWAP1 SLOAD SWAP1 PUSH2 0x100 EXP SWAP1 DIV PUSH1 0xFF AND PUSH2 0x36F JUMPI PUSH1 0x40 MLOAD PUSH32 0x8C379A000000000000000000000000000000000000000000000000000000000 DUP2 MSTORE PUSH1 0x4 ADD PUSH2 0x366 SWAP1 PUSH2 0x119C JUMP JUMPDEST PUSH1 0x40 MLOAD DUP1 SWAP2 SUB SWAP1 REVERT JUMPDEST DUP1 PUSH1 0x1 PUSH0 CALLER PUSH20 0xFFFFFFFFFFFFFFFFFFFFFFFFFFFFFFFFFFFFFFFF AND PUSH20 0xFFFFFFFFFFFFFFFFFFFFFFFFFFFFFFFFFFFFFFFF AND DUP2 MSTORE PUSH1 0x20 ADD SWAP1 DUP2 MSTORE PUSH1 0x20 ADD PUSH0 KECCAK256 SLOAD LT ISZERO PUSH2 0x3EF JUMPI PUSH1 0x40 MLOAD PUSH32 0x8C379A000000000000000000000000000000000000000000000000000000000 DUP2 MSTORE PUSH1 0x4 ADD PUSH2 0x3E6 SWAP1 PUSH2 0x1204 JUMP JUMPDEST PUSH1 0x40 MLOAD DUP1 SWAP2 SUB SWAP1 REVERT JUMPDEST DUP1 PUSH1 0x1 PUSH0 CALLER PUSH20 0xFFFFFFFFFFFFFFFFFFFFFFFFFFFFFFFFFFFFFFFF AND PUSH20 0xFFFFFFFFFFFFFFFFFFFFFFFFFFFFFFFFFFFFFFFF AND DUP2 MSTORE PUSH1 0x20 ADD SWAP1 DUP2 MSTORE PUSH1 0x20 ADD PUSH0 KECCAK256 PUSH0 DUP3 DUP3 SLOAD PUSH2 0x43B SWAP2 SWAP1 PUSH2 0x124F JUMP JUMPDEST SWAP3 POP POP DUP2 SWAP1 SSTORE POP CALLER PUSH20 0xFFFFFFFFFFFFFFFFFFFFFFFFFFFFFFFFFFFFFFFF AND PUSH2 0x8FC DUP3 SWAP1 DUP2 ISZERO MUL SWAP1 PUSH1 0x40 MLOAD PUSH0 PUSH1 0x40 MLOAD DUP1 DUP4 SUB DUP2 DUP6 DUP9 DUP9 CALL SWAP4 POP POP POP POP ISZERO DUP1 ISZERO PUSH2 0x485 JUMPI RETURNDATASIZE PUSH0 DUP1 RETURNDATACOPY RETURNDATASIZE PUSH0 REVERT JUMPDEST POP CALLER PUSH20 0xFFFFFFFFFFFFFFFFFFFFFFFFFFFFFFFFFFFFFFFF AND PUSH32 0x7FCF532C15F0A6DB0BD6D0E038BEA71D30D808C7D98CB3BF7268A95BF5081B65 DUP3 PUSH1 0x40 MLOAD PUSH2 0x4CC SWAP2 SWAP1 PUSH2 0xFF0 JUMP JUMPDEST PUSH1 0x40 MLOAD DUP1 SWAP2 SUB SWAP1 LOG2 POP JUMP JUMPDEST PUSH0 DUP1 SLOAD SWAP1 PUSH2 0x100 EXP SWAP1 DIV PUSH20 0xFFFFFFFFFFFFFFFFFFFFFFFFFFFFFFFFFFFFFFFF AND PUSH20 0xFFFFFFFFFFFFFFFFFFFFFFFFFFFFFFFFFFFFFFFF AND CALLER PUSH20 0xFFFFFFFFFFFFFFFFFFFFFFFFFFFFFFFFFFFFFFFF AND EQ PUSH2 0x564 JUMPI PUSH1 0x40 MLOAD PUSH32 0x8C379A000000000000000000000000000000000000000000000000000000000 DUP2 MSTORE PUSH1 0x4 ADD PUSH2 0x55B SWAP1 PUSH2 0x12F2 JUMP JUMPDEST PUSH1 0x40 MLOAD DUP1 SWAP2 SUB SWAP1 REVERT JUMPDEST PUSH1 0x2 PUSH0 DUP3 PUSH20 0xFFFFFFFFFFFFFFFFFFFFFFFFFFFFFFFFFFFFFFFF AND PUSH20 0xFFFFFFFFFFFFFFFFFFFFFFFFFFFFFFFFFFFFFFFF AND DUP2 MSTORE PUSH1 0x20 ADD SWAP1 DUP2 MSTORE PUSH1 0x20 ADD PUSH0 KECCAK256 PUSH0 SWAP1 SLOAD SWAP1 PUSH2 0x100 EXP SWAP1 DIV PUSH1 0xFF AND ISZERO PUSH2 0x5EE JUMPI PUSH1 0x40 MLOAD PUSH32 0x8C379A000000000000000000000000000000000000000000000000000000000 DUP2 MSTORE PUSH1 0x4 ADD PUSH2 0x5E5 SWAP1 PUSH2 0x135A JUMP JUMPDEST PUSH1 0x40 MLOAD DUP1 SWAP2 SUB SWAP1 REVERT JUMPDEST PUSH1 0x1 PUSH1 0x2 PUSH0 DUP4 PUSH20 0xFFFFFFFFFFFFFFFFFFFFFFFFFFFFFFFFFFFFFFFF AND PUSH20 0xFFFFFFFFFFFFFFFFFFFFFFFFFFFFFFFFFFFFFFFF AND DUP2 MSTORE PUSH1 0x20 ADD SWAP1 DUP2 MSTORE PUSH1 0x20 ADD PUSH0 KECCAK256 PUSH0 PUSH2 0x100 EXP DUP2 SLOAD DUP2 PUSH1 0xFF MUL NOT AND SWAP1 DUP4 ISZERO ISZERO MUL OR SWAP1 SSTORE POP PUSH32 0x38E4F67E693B50563B5B4FF6B4F367F4CCD75B23D50BD74DE4DB712C22E33899 DUP2 PUSH1 0x40 MLOAD PUSH2 0x672 SWAP2 SWAP1 PUSH2 0x1129 JUMP JUMPDEST PUSH1 0x40 MLOAD DUP1 SWAP2 SUB SWAP1 LOG1 POP JUMP JUMPDEST PUSH1 0x2 PUSH0 CALLER PUSH20 0xFFFFFFFFFFFFFFFFFFFFFFFFFFFFFFFFFFFFFFFF AND PUSH20 0xFFFFFFFFFFFFFFFFFFFFFFFFFFFFFFFFFFFFFFFF AND DUP2 MSTORE PUSH1 0x20 ADD SWAP1 DUP2 MSTORE PUSH1 0x20 ADD PUSH0 KECCAK256 PUSH0 SWAP1 SLOAD SWAP1 PUSH2 0x100 EXP SWAP1 DIV PUSH1 0xFF AND PUSH2 0x706 JUMPI PUSH1 0x40 MLOAD PUSH32 0x8C379A000000000000000000000000000000000000000000000000000000000 DUP2 MSTORE PUSH1 0x4 ADD PUSH2 0x6FD SWAP1 PUSH2 0x119C JUMP JUMPDEST PUSH1 0x40 MLOAD DUP1 SWAP2 SUB SWAP1 REVERT JUMPDEST PUSH1 0x3 PUSH0 CALLER PUSH20 0xFFFFFFFFFFFFFFFFFFFFFFFFFFFFFFFFFFFFFFFF AND PUSH20 0xFFFFFFFFFFFFFFFFFFFFFFFFFFFFFFFFFFFFFFFF AND DUP2 MSTORE PUSH1 0x20 ADD SWAP1 DUP2 MSTORE PUSH1 0x20 ADD PUSH0 KECCAK256 PUSH0 SWAP1 SLOAD SWAP1 PUSH2 0x100 EXP SWAP1 DIV PUSH1 0xFF AND ISZERO PUSH2 0x790 JUMPI PUSH1 0x40 MLOAD PUSH32 0x8C379A000000000000000000000000000000000000000000000000000000000 DUP2 MSTORE PUSH1 0x4 ADD PUSH2 0x787 SWAP1 PUSH2 0x13C2 JUMP JUMPDEST PUSH1 0x40 MLOAD DUP1 SWAP2 SUB SWAP1 REVERT JUMPDEST PUSH0 DUP2 GT PUSH2 0x7D2 JUMPI PUSH1 0x40 MLOAD PUSH32 0x8C379A000000000000000000000000000000000000000000000000000000000 DUP2 MSTORE PUSH1 0x4 ADD PUSH2 0x7C9 SWAP1 PUSH2 0x1450 JUMP JUMPDEST PUSH1 0x40 MLOAD DUP1 SWAP2 SUB SWAP1 REVERT JUMPDEST PUSH1 0x2 PUSH1 0x1 PUSH0 CALLER PUSH20 0xFFFFFFFFFFFFFFFFFFFFFFFFFFFFFFFFFFFFFFFF AND PUSH20 0xFFFFFFFFFFFFFFFFFFFFFFFFFFFFFFFFFFFFFFFF AND DUP2 MSTORE PUSH1 0x20 ADD SWAP1 DUP2 MSTORE PUSH1 0x20 ADD PUSH0 KECCAK256 SLOAD PUSH2 0x81C SWAP2 SWAP1 PUSH2 0x146E JUMP JUMPDEST DUP2 GT ISZERO PUSH2 0x85E JUMPI PUSH1 0x40 MLOAD PUSH32 0x8C379A000000000000000000000000000000000000000000000000000000000 DUP2 MSTORE PUSH1 0x4 ADD PUSH2 0x855 SWAP1 PUSH2 0x151F JUMP JUMPDEST PUSH1 0x40 MLOAD DUP1 SWAP2 SUB SWAP1 REVERT JUMPDEST PUSH1 0x1 PUSH1 0x3 PUSH0 CALLER PUSH20 0xFFFFFFFFFFFFFFFFFFFFFFFFFFFFFFFFFFFFFFFF AND PUSH20 0xFFFFFFFFFFFFFFFFFFFFFFFFFFFFFFFFFFFFFFFF AND DUP2 MSTORE PUSH1 0x20 ADD SWAP1 DUP2 MSTORE PUSH1 0x20 ADD PUSH0 KECCAK256 PUSH0 PUSH2 0x100 EXP DUP2 SLOAD DUP2 PUSH1 0xFF MUL NOT AND SWAP1 DUP4 ISZERO ISZERO MUL OR SWAP1 SSTORE POP DUP1 PUSH1 0x1 PUSH0 CALLER PUSH20 0xFFFFFFFFFFFFFFFFFFFFFFFFFFFFFFFFFFFFFFFF AND PUSH20 0xFFFFFFFFFFFFFFFFFFFFFFFFFFFFFFFFFFFFFFFF AND DUP2 MSTORE PUSH1 0x20 ADD SWAP1 DUP2 MSTORE PUSH1 0x20 ADD PUSH0 KECCAK256 PUSH0 DUP3 DUP3 SLOAD PUSH2 0x8FF SWAP2 SWAP1 PUSH2 0x153D JUMP JUMPDEST SWAP3 POP POP DUP2 SWAP1 SSTORE POP CALLER PUSH20 0xFFFFFFFFFFFFFFFFFFFFFFFFFFFFFFFFFFFFFFFF AND PUSH32 0x6C22E520074F676B380B03FFBA06F2CCF61E51CBEEE2A4E084B80A19D2FC237 DUP3 PUSH1 0x40 MLOAD PUSH2 0x94C SWAP2 SWAP1 PUSH2 0xFF0 JUMP JUMPDEST PUSH1 0x40 MLOAD DUP1 SWAP2 SUB SWAP1 LOG2 POP JUMP JUMPDEST PUSH0 DUP1 SLOAD SWAP1 PUSH2 0x100 EXP SWAP1 DIV PUSH20 0xFFFFFFFFFFFFFFFFFFFFFFFFFFFFFFFFFFFFFFFF AND PUSH20 0xFFFFFFFFFFFFFFFFFFFFFFFFFFFFFFFFFFFFFFFF AND CALLER PUSH20 0xFFFFFFFFFFFFFFFFFFFFFFFFFFFFFFFFFFFFFFFF AND EQ PUSH2 0x9E4 JUMPI PUSH1 0x40 MLOAD PUSH32 0x8C379A000000000000000000000000000000000000000000000000000000000 DUP2 MSTORE PUSH1 0x4 ADD PUSH2 0x9DB SWAP1 PUSH2 0x12F2 JUMP JUMPDEST PUSH1 0x40 MLOAD DUP1 SWAP2 SUB SWAP1 REVERT JUMPDEST DUP1 PUSH0 DUP1 PUSH2 0x100 EXP DUP2 SLOAD DUP2 PUSH20 0xFFFFFFFFFFFFFFFFFFFFFFFFFFFFFFFFFFFFFFFF MUL NOT AND SWAP1 DUP4 PUSH20 0xFFFFFFFFFFFFFFFFFFFFFFFFFFFFFFFFFFFFFFFF AND MUL OR SWAP1 SSTORE POP POP JUMP JUMPDEST PUSH1 0x3 PUSH1 0x20 MSTORE DUP1 PUSH0 MSTORE PUSH1 0x40 PUSH0 KECCAK256 PUSH0 SWAP2 POP SLOAD SWAP1 PUSH2 0x100 EXP SWAP1 DIV PUSH1 0xFF AND DUP2 JUMP JUMPDEST PUSH1 0x2 PUSH0 CALLER PUSH20 0xFFFFFFFFFFFFFFFFFFFFFFFFFFFFFFFFFFFFFFFF AND PUSH20 0xFFFFFFFFFFFFFFFFFFFFFFFFFFFFFFFFFFFFFFFF AND DUP2 MSTORE PUSH1 0x20 ADD SWAP1 DUP2 MSTORE PUSH1 0x20 ADD PUSH0 KECCAK256 PUSH0 SWAP1 SLOAD SWAP1 PUSH2 0x100 EXP SWAP1 DIV PUSH1 0xFF AND PUSH2 0xACC JUMPI PUSH1 0x40 MLOAD PUSH32 0x8C379A000000000000000000000000000000000000000000000000000000000 DUP2 MSTORE PUSH1 0x4 ADD PUSH2 0xAC3 SWAP1 PUSH2 0x119C JUMP JUMPDEST PUSH1 0x40 MLOAD DUP1 SWAP2 SUB SWAP1 REVERT JUMPDEST PUSH1 0x3 PUSH0 CALLER PUSH20 0xFFFFFFFFFFFFFFFFFFFFFFFFFFFFFFFFFFFFFFFF AND PUSH20 0xFFFFFFFFFFFFFFFFFFFFFFFFFFFFFFFFFFFFFFFF AND DUP2 MSTORE PUSH1 0x20 ADD SWAP1 DUP2 MSTORE PUSH1 0x20 ADD PUSH0 KECCAK256 PUSH0 SWAP1 SLOAD SWAP1 PUSH2 0x100 EXP SWAP1 DIV PUSH1 0xFF AND PUSH2 0xB55 JUMPI PUSH1 0x40 MLOAD PUSH32 0x8C379A000000000000000000000000000000000000000000000000000000000 DUP2 MSTORE PUSH1 0x4 ADD PUSH2 0xB4C SWAP1 PUSH2 0x15BA JUMP JUMPDEST PUSH1 0x40 MLOAD DUP1 SWAP2 SUB SWAP1 REVERT JUMPDEST PUSH0 DUP2 GT PUSH2 0xB97 JUMPI PUSH1 0x40 MLOAD PUSH32 0x8C379A000000000000000000000000000000000000000000000000000000000 DUP2 MSTORE PUSH1 0x4 ADD PUSH2 0xB8E SWAP1 PUSH2 0x1648 JUMP JUMPDEST PUSH1 0x40 MLOAD DUP1 SWAP2 SUB SWAP1 REVERT JUMPDEST PUSH1 0x1 PUSH0 CALLER PUSH20 0xFFFFFFFFFFFFFFFFFFFFFFFFFFFFFFFFFFFFFFFF AND PUSH20 0xFFFFFFFFFFFFFFFFFFFFFFFFFFFFFFFFFFFFFFFF AND DUP2 MSTORE PUSH1 0x20 ADD SWAP1 DUP2 MSTORE PUSH1 0x20 ADD PUSH0 KECCAK256 SLOAD DUP2 GT ISZERO PUSH2 0xC17 JUMPI PUSH1 0x40 MLOAD PUSH32 0x8C379A000000000000000000000000000000000000000000000000000000000 DUP2 MSTORE PUSH1 0x4 ADD PUSH2 0xC0E SWAP1 PUSH2 0x16D6 JUMP JUMPDEST PUSH1 0x40 MLOAD DUP1 SWAP2 SUB SWAP1 REVERT JUMPDEST DUP1 PUSH1 0x1 PUSH0 CALLER PUSH20 0xFFFFFFFFFFFFFFFFFFFFFFFFFFFFFFFFFFFFFFFF AND PUSH20 0xFFFFFFFFFFFFFFFFFFFFFFFFFFFFFFFFFFFFFFFF AND DUP2 MSTORE PUSH1 0x20 ADD SWAP1 DUP2 MSTORE PUSH1 0x20 ADD PUSH0 KECCAK256 PUSH0 DUP3 DUP3 SLOAD PUSH2 0xC63 SWAP2 SWAP1 PUSH2 0x124F JUMP JUMPDEST SWAP3 POP POP DUP2 SWAP1 SSTORE POP PUSH1 0x64 PUSH1 0x4 SLOAD PUSH1 0x1 PUSH0 CALLER PUSH20 0xFFFFFFFFFFFFFFFFFFFFFFFFFFFFFFFFFFFFFFFF AND PUSH20 0xFFFFFFFFFFFFFFFFFFFFFFFFFFFFFFFFFFFFFFFF AND DUP2 MSTORE PUSH1 0x20 ADD SWAP1 DUP2 MSTORE PUSH1 0x20 ADD PUSH0 KECCAK256 SLOAD PUSH2 0xCB7 SWAP2 SWAP1 PUSH2 0x146E JUMP JUMPDEST PUSH2 0xCC1 SWAP2 SWAP1 PUSH2 0x1721 JUMP JUMPDEST DUP2 LT ISZERO PUSH2 0xD9C JUMPI PUSH1 0x64 PUSH1 0x5 SLOAD DUP3 PUSH2 0xCD8 SWAP2 SWAP1 PUSH2 0x146E JUMP JUMPDEST PUSH2 0xCE2 SWAP2 SWAP1 PUSH2 0x1721 JUMP JUMPDEST PUSH1 0x1 PUSH0 CALLER PUSH20 0xFFFFFFFFFFFFFFFFFFFFFFFFFFFFFFFFFFFFFFFF AND PUSH20 0xFFFFFFFFFFFFFFFFFFFFFFFFFFFFFFFFFFFFFFFF AND DUP2 MSTORE PUSH1 0x20 ADD SWAP1 DUP2 MSTORE PUSH1 0x20 ADD PUSH0 KECCAK256 PUSH0 DUP3 DUP3 SLOAD PUSH2 0xD2D SWAP2 SWAP1 PUSH2 0x124F JUMP JUMPDEST SWAP3 POP POP DUP2 SWAP1 SSTORE POP CALLER PUSH20 0xFFFFFFFFFFFFFFFFFFFFFFFFFFFFFFFFFFFFFFFF AND PUSH32 0xDCB76CD7E0CD44183C803AC94F856167FA3F383E065054D948A6E655631C3960 PUSH1 0x64 PUSH1 0x5 SLOAD DUP5 PUSH2 0xD7C SWAP2 SWAP1 PUSH2 0x146E JUMP JUMPDEST PUSH2 0xD86 SWAP2 SWAP1 PUSH2 0x1721 JUMP JUMPDEST PUSH1 0x40 MLOAD PUSH2 0xD93 SWAP2 SWAP1 PUSH2 0xFF0 JUMP JUMPDEST PUSH1 0x40 MLOAD DUP1 SWAP2 SUB SWAP1 LOG2 JUMPDEST PUSH0 PUSH1 0x3 PUSH0 CALLER PUSH20 0xFFFFFFFFFFFFFFFFFFFFFFFFFFFFFFFFFFFFFFFF AND PUSH20 0xFFFFFFFFFFFFFFFFFFFFFFFFFFFFFFFFFFFFFFFF AND DUP2 MSTORE PUSH1 0x20 ADD SWAP1 DUP2 MSTORE PUSH1 0x20 ADD PUSH0 KECCAK256 PUSH0 PUSH2 0x100 EXP DUP2 SLOAD DUP2 PUSH1 0xFF MUL NOT AND SWAP1 DUP4 ISZERO ISZERO MUL OR SWAP1 SSTORE POP CALLER PUSH20 0xFFFFFFFFFFFFFFFFFFFFFFFFFFFFFFFFFFFFFFFF AND PUSH32 0x6F8286E47ACE49394F4A28298C2BA2C5DF760A3872931A94E60AB7FE82B809CD DUP3 PUSH1 0x40 MLOAD PUSH2 0xE36 SWAP2 SWAP1 PUSH2 0xFF0 JUMP JUMPDEST PUSH1 0x40 MLOAD DUP1 SWAP2 SUB SWAP1 LOG2 POP JUMP JUMPDEST PUSH1 0x4 SLOAD DUP2 JUMP JUMPDEST PUSH1 0x2 PUSH0 CALLER PUSH20 0xFFFFFFFFFFFFFFFFFFFFFFFFFFFFFFFFFFFFFFFF AND PUSH20 0xFFFFFFFFFFFFFFFFFFFFFFFFFFFFFFFFFFFFFFFF AND DUP2 MSTORE PUSH1 0x20 ADD SWAP1 DUP2 MSTORE PUSH1 0x20 ADD PUSH0 KECCAK256 PUSH0 SWAP1 SLOAD SWAP1 PUSH2 0x100 EXP SWAP1 DIV PUSH1 0xFF AND PUSH2 0xED0 JUMPI PUSH1 0x40 MLOAD PUSH32 0x8C379A000000000000000000000000000000000000000000000000000000000 DUP2 MSTORE PUSH1 0x4 ADD PUSH2 0xEC7 SWAP1 PUSH2 0x119C JUMP JUMPDEST PUSH1 0x40 MLOAD DUP1 SWAP2 SUB SWAP1 REVERT JUMPDEST PUSH0 CALLVALUE GT PUSH2 0xF12 JUMPI PUSH1 0x40 MLOAD PUSH32 0x8C379A000000000000000000000000000000000000000000000000000000000 DUP2 MSTORE PUSH1 0x4 ADD PUSH2 0xF09 SWAP1 PUSH2 0x17C1 JUMP JUMPDEST PUSH1 0x40 MLOAD DUP1 SWAP2 SUB SWAP1 REVERT JUMPDEST CALLVALUE PUSH1 0x1 PUSH0 CALLER PUSH20 0xFFFFFFFFFFFFFFFFFFFFFFFFFFFFFFFFFFFFFFFF AND PUSH20 0xFFFFFFFFFFFFFFFFFFFFFFFFFFFFFFFFFFFFFFFF AND DUP2 MSTORE PUSH1 0x20 ADD SWAP1 DUP2 MSTORE PUSH1 0x20 ADD PUSH0 KECCAK256 PUSH0 DUP3 DUP3 SLOAD PUSH2 0xF5E SWAP2 SWAP1 PUSH2 0x153D JUMP JUMPDEST SWAP3 POP POP DUP2 SWAP1 SSTORE POP CALLER PUSH20 0xFFFFFFFFFFFFFFFFFFFFFFFFFFFFFFFFFFFFFFFF AND PUSH32 0xE1FFFCC4923D04B559F4D29A8BFC6CDA04EB5B0D3C460751C2402C5C5CC9109C CALLVALUE PUSH1 0x40 MLOAD PUSH2 0xFAB SWAP2 SWAP1 PUSH2 0xFF0 JUMP JUMPDEST PUSH1 0x40 MLOAD DUP1 SWAP2 SUB SWAP1 LOG2 JUMP JUMPDEST PUSH0 DUP1 SLOAD SWAP1 PUSH2 0x100 EXP SWAP1 DIV PUSH20 0xFFFFFFFFFFFFFFFFFFFFFFFFFFFFFFFFFFFFFFFF AND DUP2 JUMP JUMPDEST PUSH0 DUP2 SWAP1 POP SWAP2 SWAP1 POP JUMP JUMPDEST PUSH2 0xFEA DUP2 PUSH2 0xFD8 JUMP JUMPDEST DUP3 MSTORE POP POP JUMP JUMPDEST PUSH0 PUSH1 0x20 DUP3 ADD SWAP1 POP PUSH2 0x1003 PUSH0 DUP4 ADD DUP5 PUSH2 0xFE1 JUMP JUMPDEST SWAP3 SWAP2 POP POP JUMP JUMPDEST PUSH0 DUP1 REVERT JUMPDEST PUSH0 PUSH20 0xFFFFFFFFFFFFFFFFFFFFFFFFFFFFFFFFFFFFFFFF DUP3 AND SWAP1 POP SWAP2 SWAP1 POP JUMP JUMPDEST PUSH0 PUSH2 0x1036 DUP3 PUSH2 0x100D JUMP JUMPDEST SWAP1 POP SWAP2 SWAP1 POP JUMP JUMPDEST PUSH2 0x1046 DUP2 PUSH2 0x102C JUMP JUMPDEST DUP2 EQ PUSH2 0x1050 JUMPI PUSH0 DUP1 REVERT JUMPDEST POP JUMP JUMPDEST PUSH0 DUP2 CALLDATALOAD SWAP1 POP PUSH2 0x1061 DUP2 PUSH2 0x103D JUMP JUMPDEST SWAP3 SWAP2 POP POP JUMP JUMPDEST PUSH0 PUSH1 0x20 DUP3 DUP5 SUB SLT ISZERO PUSH2 0x107C JUMPI PUSH2 0x107B PUSH2 0x1009 JUMP JUMPDEST JUMPDEST PUSH0 PUSH2 0x1089 DUP5 DUP3 DUP6 ADD PUSH2 0x1053 JUMP JUMPDEST SWAP2 POP POP SWAP3 SWAP2 POP POP JUMP JUMPDEST PUSH0 DUP2 ISZERO ISZERO SWAP1 POP SWAP2 SWAP1 POP JUMP JUMPDEST PUSH2 0x10A6 DUP2 PUSH2 0x1092 JUMP JUMPDEST DUP3 MSTORE POP POP JUMP JUMPDEST PUSH0 PUSH1 0x20 DUP3 ADD SWAP1 POP PUSH2 0x10BF PUSH0 DUP4 ADD DUP5 PUSH2 0x109D JUMP JUMPDEST SWAP3 SWAP2 POP POP JUMP JUMPDEST PUSH2 0x10CE DUP2 PUSH2 0xFD8 JUMP JUMPDEST DUP2 EQ PUSH2 0x10D8 JUMPI PUSH0 DUP1 REVERT JUMPDEST POP JUMP JUMPDEST PUSH0 DUP2 CALLDATALOAD SWAP1 POP PUSH2 0x10E9 DUP2 PUSH2 0x10C5 JUMP JUMPDEST SWAP3 SWAP2 POP POP JUMP JUMPDEST PUSH0 PUSH1 0x20 DUP3 DUP5 SUB SLT ISZERO PUSH2 0x1104 JUMPI PUSH2 0x1103 PUSH2 0x1009 JUMP JUMPDEST JUMPDEST PUSH0 PUSH2 0x1111 DUP5 DUP3 DUP6 ADD PUSH2 0x10DB JUMP JUMPDEST SWAP2 POP POP SWAP3 SWAP2 POP POP JUMP JUMPDEST PUSH2 0x1123 DUP2 PUSH2 0x102C JUMP JUMPDEST DUP3 MSTORE POP POP JUMP JUMPDEST PUSH0 PUSH1 0x20 DUP3 ADD SWAP1 POP PUSH2 0x113C PUSH0 DUP4 ADD DUP5 PUSH2 0x111A JUMP JUMPDEST SWAP3 SWAP2 POP POP JUMP JUMPDEST PUSH0 DUP3 DUP3 MSTORE PUSH1 0x20 DUP3 ADD SWAP1 POP SWAP3 SWAP2 POP POP JUMP JUMPDEST PUSH32 0x437573746F6D657220646F6573206E6F74206578697374000000000000000000 PUSH0 DUP3 ADD MSTORE POP JUMP JUMPDEST PUSH0 PUSH2 0x1186 PUSH1 0x17 DUP4 PUSH2 0x1142 JUMP JUMPDEST SWAP2 POP PUSH2 0x1191 DUP3 PUSH2 0x1152 JUMP JUMPDEST PUSH1 0x20 DUP3 ADD SWAP1 POP SWAP2 SWAP1 POP JUMP JUMPDEST PUSH0 PUSH1 0x20 DUP3 ADD SWAP1 POP DUP2 DUP2 SUB PUSH0 DUP4 ADD MSTORE PUSH2 0x11B3 DUP2 PUSH2 0x117A JUMP JUMPDEST SWAP1 POP SWAP2 SWAP1 POP JUMP JUMPDEST PUSH32 0x496E73756666696369656E742062616C616E6365000000000000000000000000 PUSH0 DUP3 ADD MSTORE POP JUMP JUMPDEST PUSH0 PUSH2 0x11EE PUSH1 0x14 DUP4 PUSH2 0x1142 JUMP JUMPDEST SWAP2 POP PUSH2 0x11F9 DUP3 PUSH2 0x11BA JUMP JUMPDEST PUSH1 0x20 DUP3 ADD SWAP1 POP SWAP2 SWAP1 POP JUMP JUMPDEST PUSH0 PUSH1 0x20 DUP3 ADD SWAP1 POP DUP2 DUP2 SUB PUSH0 DUP4 ADD MSTORE PUSH2 0x121B DUP2 PUSH2 0x11E2 JUMP JUMPDEST SWAP1 POP SWAP2 SWAP1 POP JUMP JUMPDEST PUSH32 0x4E487B7100000000000000000000000000000000000000000000000000000000 PUSH0 MSTORE PUSH1 0x11 PUSH1 0x4 MSTORE PUSH1 0x24 PUSH0 REVERT JUMPDEST PUSH0 PUSH2 0x1259 DUP3 PUSH2 0xFD8 JUMP JUMPDEST SWAP2 POP PUSH2 0x1264 DUP4 PUSH2 0xFD8 JUMP JUMPDEST SWAP3 POP DUP3 DUP3 SUB SWAP1 POP DUP2 DUP2 GT ISZERO PUSH2 0x127C JUMPI PUSH2 0x127B PUSH2 0x1222 JUMP JUMPDEST JUMPDEST SWAP3 SWAP2 POP POP JUMP JUMPDEST PUSH32 0x4F6E6C792061646D696E2063616E20706572666F726D20746869732061637469 PUSH0 DUP3 ADD MSTORE PUSH32 0x6F6E000000000000000000000000000000000000000000000000000000000000 PUSH1 0x20 DUP3 ADD MSTORE POP JUMP JUMPDEST PUSH0 PUSH2 0x12DC PUSH1 0x22 DUP4 PUSH2 0x1142 JUMP JUMPDEST SWAP2 POP PUSH2 0x12E7 DUP3 PUSH2 0x1282 JUMP JUMPDEST PUSH1 0x40 DUP3 ADD SWAP1 POP SWAP2 SWAP1 POP JUMP JUMPDEST PUSH0 PUSH1 0x20 DUP3 ADD SWAP1 POP DUP2 DUP2 SUB PUSH0 DUP4 ADD MSTORE PUSH2 0x1309 DUP2 PUSH2 0x12D0 JUMP JUMPDEST SWAP1 POP SWAP2 SWAP1 POP JUMP JUMPDEST PUSH32 0x437573746F6D657220616C726561647920657869737473000000000000000000 PUSH0 DUP3 ADD MSTORE POP JUMP JUMPDEST PUSH0 PUSH2 0x1344 PUSH1 0x17 DUP4 PUSH2 0x1142 JUMP JUMPDEST SWAP2 POP PUSH2 0x134F DUP3 PUSH2 0x1310 JUMP JUMPDEST PUSH1 0x20 DUP3 ADD SWAP1 POP SWAP2 SWAP1 POP JUMP JUMPDEST PUSH0 PUSH1 0x20 DUP3 ADD SWAP1 POP DUP2 DUP2 SUB PUSH0 DUP4 ADD MSTORE PUSH2 0x1371 DUP2 PUSH2 0x1338 JUMP JUMPDEST SWAP1 POP SWAP2 SWAP1 POP JUMP JUMPDEST PUSH32 0x4578697374696E67206C6F616E206E6F74207965742072657061696400000000 PUSH0 DUP3 ADD MSTORE POP JUMP JUMPDEST PUSH0 PUSH2 0x13AC PUSH1 0x1C DUP4 PUSH2 0x1142 JUMP JUMPDEST SWAP2 POP PUSH2 0x13B7 DUP3 PUSH2 0x1378 JUMP JUMPDEST PUSH1 0x20 DUP3 ADD SWAP1 POP SWAP2 SWAP1 POP JUMP JUMPDEST PUSH0 PUSH1 0x20 DUP3 ADD SWAP1 POP DUP2 DUP2 SUB PUSH0 DUP4 ADD MSTORE PUSH2 0x13D9 DUP2 PUSH2 0x13A0 JUMP JUMPDEST SWAP1 POP SWAP2 SWAP1 POP JUMP JUMPDEST PUSH32 0x4C6F616E20616D6F756E74206D7573742062652067726561746572207468616E PUSH0 DUP3 ADD MSTORE PUSH32 0x2030000000000000000000000000000000000000000000000000000000000000 PUSH1 0x20 DUP3 ADD MSTORE POP JUMP JUMPDEST PUSH0 PUSH2 0x143A PUSH1 0x22 DUP4 PUSH2 0x1142 JUMP JUMPDEST SWAP2 POP PUSH2 0x1445 DUP3 PUSH2 0x13E0 JUMP JUMPDEST PUSH1 0x40 DUP3 ADD SWAP1 POP SWAP2 SWAP1 POP JUMP JUMPDEST PUSH0 PUSH1 0x20 DUP3 ADD SWAP1 POP DUP2 DUP2 SUB PUSH0 DUP4 ADD MSTORE PUSH2 0x1467 DUP2 PUSH2 0x142E JUMP JUMPDEST SWAP1 POP SWAP2 SWAP1 POP JUMP JUMPDEST PUSH0 PUSH2 0x1478 DUP3 PUSH2 0xFD8 JUMP JUMPDEST SWAP2 POP PUSH2 0x1483 DUP4 PUSH2 0xFD8 JUMP JUMPDEST SWAP3 POP DUP3 DUP3 MUL PUSH2 0x1491 DUP2 PUSH2 0xFD8 JUMP JUMPDEST SWAP2 POP DUP3 DUP3 DIV DUP5 EQ DUP4 ISZERO OR PUSH2 0x14A8 JUMPI PUSH2 0x14A7 PUSH2 0x1222 JUMP JUMPDEST JUMPDEST POP SWAP3 SWAP2 POP POP JUMP JUMPDEST PUSH32 0x4C6F616E20616D6F756E74206578636565647320646F75626C65207468652062 PUSH0 DUP3 ADD MSTORE PUSH32 0x616C616E63650000000000000000000000000000000000000000000000000000 PUSH1 0x20 DUP3 ADD MSTORE POP JUMP JUMPDEST PUSH0 PUSH2 0x1509 PUSH1 0x26 DUP4 PUSH2 0x1142 JUMP JUMPDEST SWAP2 POP PUSH2 0x1514 DUP3 PUSH2 0x14AF JUMP JUMPDEST PUSH1 0x40 DUP3 ADD SWAP1 POP SWAP2 SWAP1 POP JUMP JUMPDEST PUSH0 PUSH1 0x20 DUP3 ADD SWAP1 POP DUP2 DUP2 SUB PUSH0 DUP4 ADD MSTORE PUSH2 0x1536 DUP2 PUSH2 0x14FD JUMP JUMPDEST SWAP1 POP SWAP2 SWAP1 POP JUMP JUMPDEST PUSH0 PUSH2 0x1547 DUP3 PUSH2 0xFD8 JUMP JUMPDEST SWAP2 POP PUSH2 0x1552 DUP4 PUSH2 0xFD8 JUMP JUMPDEST SWAP3 POP DUP3 DUP3 ADD SWAP1 POP DUP1 DUP3 GT ISZERO PUSH2 0x156A JUMPI PUSH2 0x1569 PUSH2 0x1222 JUMP JUMPDEST JUMPDEST SWAP3 SWAP2 POP POP JUMP JUMPDEST PUSH32 0x4E6F206578697374696E67206C6F616E20746F20726570617900000000000000 PUSH0 DUP3 ADD MSTORE POP JUMP JUMPDEST PUSH0 PUSH2 0x15A4 PUSH1 0x19 DUP4 PUSH2 0x1142 JUMP JUMPDEST SWAP2 POP PUSH2 0x15AF DUP3 PUSH2 0x1570 JUMP JUMPDEST PUSH1 0x20 DUP3 ADD SWAP1 POP SWAP2 SWAP1 POP JUMP JUMPDEST PUSH0 PUSH1 0x20 DUP3 ADD SWAP1 POP DUP2 DUP2 SUB PUSH0 DUP4 ADD MSTORE PUSH2 0x15D1 DUP2 PUSH2 0x1598 JUMP JUMPDEST SWAP1 POP SWAP2 SWAP1 POP JUMP JUMPDEST PUSH32 0x52657061796D656E7420616D6F756E74206D7573742062652067726561746572 PUSH0 DUP3 ADD MSTORE PUSH32 0x207468616E203000000000000000000000000000000000000000000000000000 PUSH1 0x20 DUP3 ADD MSTORE POP JUMP JUMPDEST PUSH0 PUSH2 0x1632 PUSH1 0x27 DUP4 PUSH2 0x1142 JUMP JUMPDEST SWAP2 POP PUSH2 0x163D DUP3 PUSH2 0x15D8 JUMP JUMPDEST PUSH1 0x40 DUP3 ADD SWAP1 POP SWAP2 SWAP1 POP JUMP JUMPDEST PUSH0 PUSH1 0x20 DUP3 ADD SWAP1 POP DUP2 DUP2 SUB PUSH0 DUP4 ADD MSTORE PUSH2 0x165F DUP2 PUSH2 0x1626 JUMP JUMPDEST SWAP1 POP SWAP2 SWAP1 POP JUMP JUMPDEST PUSH32 0x496E73756666696369656E742062616C616E636520666F72206C6F616E207265 PUSH0 DUP3 ADD MSTORE PUSH32 0x7061796D656E7400000000000000000000000000000000000000000000000000 PUSH1 0x20 DUP3 ADD MSTORE POP JUMP JUMPDEST PUSH0 PUSH2 0x16C0 PUSH1 0x27 DUP4 PUSH2 0x1142 JUMP JUMPDEST SWAP2 POP PUSH2 0x16CB DUP3 PUSH2 0x1666 JUMP JUMPDEST PUSH1 0x40 DUP3 ADD SWAP1 POP SWAP2 SWAP1 POP JUMP JUMPDEST PUSH0 PUSH1 0x20 DUP3 ADD SWAP1 POP DUP2 DUP2 SUB PUSH0 DUP4 ADD MSTORE PUSH2 0x16ED DUP2 PUSH2 0x16B4 JUMP JUMPDEST SWAP1 POP SWAP2 SWAP1 POP JUMP JUMPDEST PUSH32 0x4E487B7100000000000000000000000000000000000000000000000000000000 PUSH0 MSTORE PUSH1 0x12 PUSH1 0x4 MSTORE PUSH1 0x24 PUSH0 REVERT JUMPDEST PUSH0 PUSH2 0x172B DUP3 PUSH2 0xFD8 JUMP JUMPDEST SWAP2 POP PUSH2 0x1736 DUP4 PUSH2 0xFD8 JUMP JUMPDEST SWAP3 POP DUP3 PUSH2 0x1746 JUMPI PUSH2 0x1745 PUSH2 0x16F4 JUMP JUMPDEST JUMPDEST DUP3 DUP3 DIV SWAP1 POP SWAP3 SWAP2 POP POP JUMP JUMPDEST PUSH32 0x4465706F73697420616D6F756E74206D75737420626520677265617465722074 PUSH0 DUP3 ADD MSTORE PUSH32 0x68616E2030000000000000000000000000000000000000000000000000000000 PUSH1 0x20 DUP3 ADD MSTORE POP JUMP JUMPDEST PUSH0 PUSH2 0x17AB PUSH1 0x25 DUP4 PUSH2 0x1142 JUMP JUMPDEST SWAP2 POP PUSH2 0x17B6 DUP3 PUSH2 0x1751 JUMP JUMPDEST PUSH1 0x40 DUP3 ADD SWAP1 POP SWAP2 SWAP1 POP JUMP JUMPDEST PUSH0 PUSH1 0x20 DUP3 ADD SWAP1 POP DUP2 DUP2 SUB PUSH0 DUP4 ADD MSTORE PUSH2 0x17D8 DUP2 PUSH2 0x179F JUMP JUMPDEST SWAP1 POP SWAP2 SWAP1 POP JUMP INVALID LOG2 PUSH5 0x6970667358 0x22 SLT KECCAK256 0x21 0xCD SWAP1 DUP8 SWAP13 0xEF 0xAE 0x2E PUSH17 0x9C03D3CCDCE2FE12615412CC76380B3C34 0xD1 PUSH0 0xF 0xA9 0x2C ADDRESS PUSH5 0x736F6C6343 STOP ADDMOD NOT STOP CALLER "
				},
				"gasEstimates": {
					"creation": {
						"codeDepositCost": "1233000",
						"executionCost": "69756",
						"totalCost": "1302756"
					},
					"external": {
						"admin()": "2615",
						"balances(address)": "2825",
						"changeAdmin(address)": "26881",
						"deposit()": "infinite",
						"hasLoan(address)": "2855",
						"isCustomer(address)": "2878",
						"loanInterestRate()": "2491",
						"loanPenaltyRate()": "2426",
						"registerCustomer(address)": "infinite",
						"repayLoan(uint256)": "infinite",
						"requestLoan(uint256)": "infinite",
						"withdraw(uint256)": "infinite"
					}
				},
				"methodIdentifiers": {
					"admin()": "f851a440",
					"balances(address)": "27e235e3",
					"changeAdmin(address)": "8f283970",
					"deposit()": "d0e30db0",
					"hasLoan(address)": "9da8c580",
					"isCustomer(address)": "28fd5e83",
					"loanInterestRate()": "c222bcea",
					"loanPenaltyRate()": "11d20d20",
					"registerCustomer(address)": "7520320f",
					"repayLoan(uint256)": "ab7b1c89",
					"requestLoan(uint256)": "8d5d3429",
					"withdraw(uint256)": "2e1a7d4d"
				}
			},
			"storageLayout": {
				"storage": [
					{
						"astId": 3,
						"contract": "BankingSystem/BankingSystem.sol:BankingSystem",
						"label": "admin",
						"offset": 0,
						"slot": "0",
						"type": "t_address"
					},
					{
						"astId": 7,
						"contract": "BankingSystem/BankingSystem.sol:BankingSystem",
						"label": "balances",
						"offset": 0,
						"slot": "1",
						"type": "t_mapping(t_address,t_uint256)"
					},
					{
						"astId": 11,
						"contract": "BankingSystem/BankingSystem.sol:BankingSystem",
						"label": "isCustomer",
						"offset": 0,
						"slot": "2",
						"type": "t_mapping(t_address,t_bool)"
					},
					{
						"astId": 15,
						"contract": "BankingSystem/BankingSystem.sol:BankingSystem",
						"label": "hasLoan",
						"offset": 0,
						"slot": "3",
						"type": "t_mapping(t_address,t_bool)"
					},
					{
						"astId": 18,
						"contract": "BankingSystem/BankingSystem.sol:BankingSystem",
						"label": "loanInterestRate",
						"offset": 0,
						"slot": "4",
						"type": "t_uint256"
					},
					{
						"astId": 21,
						"contract": "BankingSystem/BankingSystem.sol:BankingSystem",
						"label": "loanPenaltyRate",
						"offset": 0,
						"slot": "5",
						"type": "t_uint256"
					}
				],
				"types": {
					"t_address": {
						"encoding": "inplace",
						"label": "address",
						"numberOfBytes": "20"
					},
					"t_bool": {
						"encoding": "inplace",
						"label": "bool",
						"numberOfBytes": "1"
					},
					"t_mapping(t_address,t_bool)": {
						"encoding": "mapping",
						"key": "t_address",
						"label": "mapping(address => bool)",
						"numberOfBytes": "32",
						"value": "t_bool"
					},
					"t_mapping(t_address,t_uint256)": {
						"encoding": "mapping",
						"key": "t_address",
						"label": "mapping(address => uint256)",
						"numberOfBytes": "32",
						"value": "t_uint256"
					},
					"t_uint256": {
						"encoding": "inplace",
						"label": "uint256",
						"numberOfBytes": "32"
					}
				}
			},
			"userdoc": {
				"kind": "user",
				"methods": {},
				"version": 1
			}
		}
	}
}